{
  "address": "0x3D304b7960d5d96D45735bbF16Bb89baa03030A3",
  "abi": [
    {
      "inputs": [
        {
          "internalType": "contract IPollFactory",
          "name": "_pollFactory",
          "type": "address"
        },
        {
          "internalType": "contract IMessageProcessorFactory",
          "name": "_messageProcessorFactory",
          "type": "address"
        },
        {
          "internalType": "contract ITallyFactory",
          "name": "_tallyFactory",
          "type": "address"
        },
        {
          "internalType": "contract SignUpGatekeeper",
          "name": "_signUpGatekeeper",
          "type": "address"
        },
        {
          "internalType": "contract InitialVoiceCreditProxy",
          "name": "_initialVoiceCreditProxy",
          "type": "address"
        },
        {
          "internalType": "uint8",
          "name": "_stateTreeDepth",
          "type": "uint8"
        },
        {
          "internalType": "uint256[5]",
          "name": "_emptyBallotRoots",
          "type": "uint256[5]"
        }
      ],
      "stateMutability": "nonpayable",
      "type": "constructor"
    },
    {
      "inputs": [],
      "name": "DefaultZeroBadIndex",
      "type": "error"
    },
    {
      "inputs": [],
      "name": "DepthTooLarge",
      "type": "error"
    },
    {
      "inputs": [],
      "name": "InvalidMessage",
      "type": "error"
    },
    {
      "inputs": [],
      "name": "InvalidPubKey",
      "type": "error"
    },
    {
      "inputs": [],
      "name": "NumberOfLeavesCannotBeZero",
      "type": "error"
    },
    {
      "inputs": [
        {
          "internalType": "address",
          "name": "owner",
          "type": "address"
        }
      ],
      "name": "OwnableInvalidOwner",
      "type": "error"
    },
    {
      "inputs": [
        {
          "internalType": "address",
          "name": "account",
          "type": "address"
        }
      ],
      "name": "OwnableUnauthorizedAccount",
      "type": "error"
    },
    {
      "inputs": [
        {
          "internalType": "address",
          "name": "_poll",
          "type": "address"
        }
      ],
      "name": "PollAddressDoesNotExist",
      "type": "error"
    },
    {
      "inputs": [
        {
          "internalType": "uint256",
          "name": "pollId",
          "type": "uint256"
        }
      ],
      "name": "PollDoesNotExist",
      "type": "error"
    },
    {
      "inputs": [],
      "name": "PoseidonHashLibrariesNotLinked",
      "type": "error"
    },
    {
      "inputs": [],
      "name": "PubKeyAlreadyRegistered",
      "type": "error"
    },
    {
      "inputs": [],
      "name": "TooManySignups",
      "type": "error"
    },
    {
      "anonymous": false,
      "inputs": [
        {
          "indexed": true,
          "internalType": "uint256",
          "name": "daoId",
          "type": "uint256"
        },
        {
          "indexed": false,
          "internalType": "string",
          "name": "daoName",
          "type": "string"
        },
        {
          "indexed": false,
          "internalType": "address",
          "name": "creatorWallet",
          "type": "address"
        }
      ],
      "name": "DAOCreated",
      "type": "event"
    },
    {
      "anonymous": false,
      "inputs": [
        {
          "indexed": false,
          "internalType": "uint256",
          "name": "_pollId",
          "type": "uint256"
        },
        {
          "indexed": true,
          "internalType": "uint256",
          "name": "_coordinatorPubKeyX",
          "type": "uint256"
        },
        {
          "indexed": true,
          "internalType": "uint256",
          "name": "_coordinatorPubKeyY",
          "type": "uint256"
        },
        {
          "indexed": false,
          "internalType": "enum DomainObjs.Mode",
          "name": "_mode",
          "type": "uint8"
        }
      ],
      "name": "DeployPoll",
      "type": "event"
    },
    {
      "anonymous": false,
      "inputs": [
        {
          "indexed": true,
          "internalType": "uint256",
          "name": "documentId",
          "type": "uint256"
        },
        {
          "indexed": false,
          "internalType": "uint256",
          "name": "daoId",
          "type": "uint256"
        },
        {
          "indexed": false,
          "internalType": "address",
          "name": "uploaderWallet",
          "type": "address"
        }
      ],
      "name": "DocumentUploaded",
      "type": "event"
    },
    {
      "anonymous": false,
      "inputs": [
        {
          "indexed": true,
          "internalType": "uint256",
          "name": "daoId",
          "type": "uint256"
        },
        {
          "indexed": false,
          "internalType": "uint256",
          "name": "userId",
          "type": "uint256"
        },
        {
          "indexed": false,
          "internalType": "address",
          "name": "userWallet",
          "type": "address"
        }
      ],
      "name": "MemberAddedToDAO",
      "type": "event"
    },
    {
      "anonymous": false,
      "inputs": [
        {
          "indexed": true,
          "internalType": "address",
          "name": "previousOwner",
          "type": "address"
        },
        {
          "indexed": true,
          "internalType": "address",
          "name": "newOwner",
          "type": "address"
        }
      ],
      "name": "OwnershipTransferred",
      "type": "event"
    },
    {
      "anonymous": false,
      "inputs": [
        {
          "indexed": true,
          "internalType": "uint256",
          "name": "pollId",
          "type": "uint256"
        },
        {
          "indexed": true,
          "internalType": "address",
          "name": "creator",
          "type": "address"
        },
        {
          "components": [
            {
              "internalType": "address",
              "name": "poll",
              "type": "address"
            },
            {
              "internalType": "address",
              "name": "messageProcessor",
              "type": "address"
            },
            {
              "internalType": "address",
              "name": "tally",
              "type": "address"
            }
          ],
          "indexed": false,
          "internalType": "struct MACI.PollContracts",
          "name": "pollContracts",
          "type": "tuple"
        },
        {
          "indexed": false,
          "internalType": "string",
          "name": "name",
          "type": "string"
        },
        {
          "indexed": false,
          "internalType": "string[]",
          "name": "options",
          "type": "string[]"
        },
        {
          "indexed": false,
          "internalType": "string",
          "name": "metadata",
          "type": "string"
        },
        {
          "indexed": false,
          "internalType": "uint256",
          "name": "startTime",
          "type": "uint256"
        },
        {
          "indexed": false,
          "internalType": "uint256",
          "name": "endTime",
          "type": "uint256"
        }
      ],
      "name": "PollCreated",
      "type": "event"
    },
    {
      "anonymous": false,
      "inputs": [
        {
          "indexed": true,
          "internalType": "uint256",
          "name": "pollId",
          "type": "uint256"
        },
        {
          "indexed": false,
          "internalType": "string",
          "name": "tallyJsonCID",
          "type": "string"
        }
      ],
      "name": "PollTallyCIDUpdated",
      "type": "event"
    },
    {
      "anonymous": false,
      "inputs": [
        {
          "indexed": true,
          "internalType": "uint256",
          "name": "proposalId",
          "type": "uint256"
        },
        {
          "indexed": false,
          "internalType": "uint256",
          "name": "daoId",
          "type": "uint256"
        },
        {
          "indexed": false,
          "internalType": "address",
          "name": "proposerWallet",
          "type": "address"
        }
      ],
      "name": "ProposalCreated",
      "type": "event"
    },
    {
      "anonymous": false,
      "inputs": [
        {
          "indexed": true,
          "internalType": "uint256",
          "name": "proposalId",
          "type": "uint256"
        },
        {
          "indexed": false,
          "internalType": "uint256",
          "name": "userId",
          "type": "uint256"
        },
        {
          "indexed": false,
          "internalType": "uint256",
          "name": "numTokens",
          "type": "uint256"
        },
        {
          "indexed": false,
          "internalType": "uint256",
          "name": "voteChoice",
          "type": "uint256"
        }
      ],
      "name": "QVVoteCast",
      "type": "event"
    },
    {
      "anonymous": false,
      "inputs": [
        {
          "indexed": false,
          "internalType": "uint256",
          "name": "_stateIndex",
          "type": "uint256"
        },
        {
          "indexed": true,
          "internalType": "uint256",
          "name": "_userPubKeyX",
          "type": "uint256"
        },
        {
          "indexed": true,
          "internalType": "uint256",
          "name": "_userPubKeyY",
          "type": "uint256"
        },
        {
          "indexed": false,
          "internalType": "uint256",
          "name": "_voiceCreditBalance",
          "type": "uint256"
        },
        {
          "indexed": false,
          "internalType": "uint256",
          "name": "_timestamp",
          "type": "uint256"
        }
      ],
      "name": "SignUp",
      "type": "event"
    },
    {
      "anonymous": false,
      "inputs": [
        {
          "indexed": true,
          "internalType": "uint256",
          "name": "userId",
          "type": "uint256"
        },
        {
          "indexed": false,
          "internalType": "string",
          "name": "userName",
          "type": "string"
        },
        {
          "indexed": false,
          "internalType": "address",
          "name": "userWallet",
          "type": "address"
        }
      ],
      "name": "UserCreated",
      "type": "event"
    },
    {
      "anonymous": false,
      "inputs": [
        {
          "indexed": true,
          "internalType": "uint256",
          "name": "daoId",
          "type": "uint256"
        },
        {
          "indexed": false,
          "internalType": "uint256",
          "name": "userId",
          "type": "uint256"
        },
        {
          "indexed": false,
          "internalType": "address",
          "name": "userWallet",
          "type": "address"
        }
      ],
      "name": "UserJoinedDAO",
      "type": "event"
    },
    {
      "anonymous": false,
      "inputs": [
        {
          "indexed": true,
          "internalType": "uint256",
          "name": "proposalId",
          "type": "uint256"
        },
        {
          "indexed": false,
          "internalType": "uint256",
          "name": "userId",
          "type": "uint256"
        },
        {
          "indexed": false,
          "internalType": "uint256",
          "name": "voteChoice",
          "type": "uint256"
        }
      ],
      "name": "VoteCast",
      "type": "event"
    },
    {
      "inputs": [],
      "name": "MESSAGE_DATA_LENGTH",
      "outputs": [
        {
          "internalType": "uint8",
          "name": "",
          "type": "uint8"
        }
      ],
      "stateMutability": "view",
      "type": "function"
    },
    {
      "inputs": [
        {
          "internalType": "uint256",
          "name": "_daoId",
          "type": "uint256"
        },
        {
          "internalType": "address",
          "name": "_userWalletAddress",
          "type": "address"
        },
        {
          "internalType": "address",
          "name": "_adminWalletAddress",
          "type": "address"
        }
      ],
      "name": "addMembertoDao",
      "outputs": [],
      "stateMutability": "nonpayable",
      "type": "function"
    },
    {
      "inputs": [
        {
          "internalType": "uint256",
          "name": "_daoId",
          "type": "uint256"
        },
        {
          "internalType": "address",
          "name": "_callerWalletAddress",
          "type": "address"
        }
      ],
      "name": "checkMembership",
      "outputs": [
        {
          "internalType": "bool",
          "name": "",
          "type": "bool"
        }
      ],
      "stateMutability": "view",
      "type": "function"
    },
    {
      "inputs": [],
      "name": "contractCreationTime",
      "outputs": [
        {
          "internalType": "uint256",
          "name": "",
          "type": "uint256"
        }
      ],
      "stateMutability": "view",
      "type": "function"
    },
    {
      "inputs": [],
      "name": "coordinatorPubKey",
      "outputs": [
        {
          "internalType": "uint256",
          "name": "x",
          "type": "uint256"
        },
        {
          "internalType": "uint256",
          "name": "y",
          "type": "uint256"
        }
      ],
      "stateMutability": "view",
      "type": "function"
    },
    {
      "inputs": [
        {
          "internalType": "string",
          "name": "_daoName",
          "type": "string"
        },
        {
          "internalType": "string",
          "name": "_daoDescription",
          "type": "string"
        },
        {
          "internalType": "uint256",
          "name": "_joiningThreshold",
          "type": "uint256"
        },
        {
          "internalType": "uint256",
          "name": "_proposingThreshold",
          "type": "uint256"
        },
        {
          "internalType": "address",
          "name": "_joiningTokenAddress",
          "type": "address"
        },
        {
          "internalType": "bool",
          "name": "_isPrivate",
          "type": "bool"
        },
        {
          "internalType": "address",
          "name": "_userWalletAddress",
          "type": "address"
        },
        {
          "internalType": "string",
          "name": "_discordID",
          "type": "string"
        }
      ],
      "name": "createDao",
      "outputs": [],
      "stateMutability": "nonpayable",
      "type": "function"
    },
    {
      "inputs": [
        {
          "internalType": "string",
          "name": "_name",
          "type": "string"
        },
        {
          "internalType": "string[]",
          "name": "_options",
          "type": "string[]"
        },
        {
          "internalType": "string",
          "name": "_metadata",
          "type": "string"
        },
        {
          "internalType": "uint256",
          "name": "_duration",
          "type": "uint256"
        },
        {
          "internalType": "enum DomainObjs.Mode",
          "name": "isQv",
          "type": "uint8"
        }
      ],
      "name": "createPoll",
      "outputs": [],
      "stateMutability": "nonpayable",
      "type": "function"
    },
    {
      "inputs": [
        {
          "internalType": "uint256",
          "name": "_proposalType",
          "type": "uint256"
        },
        {
          "internalType": "string",
          "name": "_proposalTitleAndDesc",
          "type": "string"
        },
        {
          "internalType": "uint256",
          "name": "_votingThreshold",
          "type": "uint256"
        },
        {
          "internalType": "uint256",
          "name": "_daoId",
          "type": "uint256"
        },
        {
          "internalType": "address",
          "name": "_governanceTokenAddress",
          "type": "address"
        },
        {
          "internalType": "address",
          "name": "_userWalletAddress",
          "type": "address"
        },
        {
          "internalType": "uint256",
          "name": "_beginningTime",
          "type": "uint256"
        },
        {
          "internalType": "uint256",
          "name": "_endingTime",
          "type": "uint256"
        },
        {
          "internalType": "uint256",
          "name": "_passingThreshold",
          "type": "uint256"
        },
        {
          "internalType": "bool",
          "name": "_voteOnce",
          "type": "bool"
        }
      ],
      "name": "createProposal",
      "outputs": [],
      "stateMutability": "nonpayable",
      "type": "function"
    },
    {
      "inputs": [
        {
          "internalType": "string",
          "name": "_userName",
          "type": "string"
        },
        {
          "internalType": "string",
          "name": "_userEmail",
          "type": "string"
        },
        {
          "internalType": "string",
          "name": "_description",
          "type": "string"
        },
        {
          "internalType": "string",
          "name": "_profileImage",
          "type": "string"
        },
        {
          "internalType": "address",
          "name": "_userWalletAddress",
          "type": "address"
        }
      ],
      "name": "createUser",
      "outputs": [],
      "stateMutability": "nonpayable",
      "type": "function"
    },
    {
      "inputs": [
        {
          "internalType": "uint256",
          "name": "",
          "type": "uint256"
        }
      ],
      "name": "daoIdtoDao",
      "outputs": [
        {
          "internalType": "uint256",
          "name": "daoId",
          "type": "uint256"
        },
        {
          "internalType": "uint256",
          "name": "creator",
          "type": "uint256"
        },
        {
          "internalType": "string",
          "name": "daoName",
          "type": "string"
        },
        {
          "internalType": "string",
          "name": "daoDescription",
          "type": "string"
        },
        {
          "internalType": "uint256",
          "name": "joiningThreshold",
          "type": "uint256"
        },
        {
          "internalType": "uint256",
          "name": "proposingThreshold",
          "type": "uint256"
        },
        {
          "internalType": "address",
          "name": "governanceTokenAddress",
          "type": "address"
        },
        {
          "internalType": "bool",
          "name": "isPrivate",
          "type": "bool"
        },
        {
          "internalType": "string",
          "name": "discordID",
          "type": "string"
        }
      ],
      "stateMutability": "view",
      "type": "function"
    },
    {
      "inputs": [
        {
          "internalType": "uint256",
          "name": "",
          "type": "uint256"
        },
        {
          "internalType": "uint256",
          "name": "",
          "type": "uint256"
        }
      ],
      "name": "daoIdtoDocuments",
      "outputs": [
        {
          "internalType": "uint256",
          "name": "",
          "type": "uint256"
        }
      ],
      "stateMutability": "view",
      "type": "function"
    },
    {
      "inputs": [
        {
          "internalType": "uint256",
          "name": "",
          "type": "uint256"
        },
        {
          "internalType": "uint256",
          "name": "",
          "type": "uint256"
        }
      ],
      "name": "daoIdtoMembers",
      "outputs": [
        {
          "internalType": "uint256",
          "name": "",
          "type": "uint256"
        }
      ],
      "stateMutability": "view",
      "type": "function"
    },
    {
      "inputs": [
        {
          "internalType": "uint256",
          "name": "",
          "type": "uint256"
        },
        {
          "internalType": "uint256",
          "name": "",
          "type": "uint256"
        }
      ],
      "name": "daoIdtoProposals",
      "outputs": [
        {
          "internalType": "uint256",
          "name": "",
          "type": "uint256"
        }
      ],
      "stateMutability": "view",
      "type": "function"
    },
    {
      "inputs": [
        {
          "internalType": "uint256",
          "name": "_duration",
          "type": "uint256"
        },
        {
          "components": [
            {
              "internalType": "uint8",
              "name": "intStateTreeDepth",
              "type": "uint8"
            },
            {
              "internalType": "uint8",
              "name": "messageTreeSubDepth",
              "type": "uint8"
            },
            {
              "internalType": "uint8",
              "name": "messageTreeDepth",
              "type": "uint8"
            },
            {
              "internalType": "uint8",
              "name": "voteOptionTreeDepth",
              "type": "uint8"
            }
          ],
          "internalType": "struct Params.TreeDepths",
          "name": "_treeDepths",
          "type": "tuple"
        },
        {
          "components": [
            {
              "internalType": "uint256",
              "name": "x",
              "type": "uint256"
            },
            {
              "internalType": "uint256",
              "name": "y",
              "type": "uint256"
            }
          ],
          "internalType": "struct DomainObjs.PubKey",
          "name": "_coordinatorPubKey",
          "type": "tuple"
        },
        {
          "internalType": "address",
          "name": "_verifier",
          "type": "address"
        },
        {
          "internalType": "address",
          "name": "_vkRegistry",
          "type": "address"
        },
        {
          "internalType": "enum DomainObjs.Mode",
          "name": "_mode",
          "type": "uint8"
        }
      ],
      "name": "deployPoll",
      "outputs": [],
      "stateMutability": "nonpayable",
      "type": "function"
    },
    {
      "inputs": [
        {
          "internalType": "uint256",
          "name": "",
          "type": "uint256"
        }
      ],
      "name": "documentIdtoDocument",
      "outputs": [
        {
          "internalType": "uint256",
          "name": "documentId",
          "type": "uint256"
        },
        {
          "internalType": "string",
          "name": "documentTitle",
          "type": "string"
        },
        {
          "internalType": "string",
          "name": "documentDescription",
          "type": "string"
        },
        {
          "internalType": "string",
          "name": "ipfsHash",
          "type": "string"
        },
        {
          "internalType": "uint256",
          "name": "upoladerId",
          "type": "uint256"
        },
        {
          "internalType": "uint256",
          "name": "daoId",
          "type": "uint256"
        }
      ],
      "stateMutability": "view",
      "type": "function"
    },
    {
      "inputs": [
        {
          "internalType": "uint256",
          "name": "",
          "type": "uint256"
        }
      ],
      "name": "emptyBallotRoots",
      "outputs": [
        {
          "internalType": "uint256",
          "name": "",
          "type": "uint256"
        }
      ],
      "stateMutability": "view",
      "type": "function"
    },
    {
      "inputs": [
        {
          "internalType": "uint256",
          "name": "_pollId",
          "type": "uint256"
        }
      ],
      "name": "fetchPoll",
      "outputs": [
        {
          "components": [
            {
              "internalType": "uint256",
              "name": "id",
              "type": "uint256"
            },
            {
              "internalType": "string",
              "name": "name",
              "type": "string"
            },
            {
              "internalType": "bytes",
              "name": "encodedOptions",
              "type": "bytes"
            },
            {
              "internalType": "string",
              "name": "metadata",
              "type": "string"
            },
            {
              "components": [
                {
                  "internalType": "address",
                  "name": "poll",
                  "type": "address"
                },
                {
                  "internalType": "address",
                  "name": "messageProcessor",
                  "type": "address"
                },
                {
                  "internalType": "address",
                  "name": "tally",
                  "type": "address"
                }
              ],
              "internalType": "struct MACI.PollContracts",
              "name": "pollContracts",
              "type": "tuple"
            },
            {
              "internalType": "uint256",
              "name": "startTime",
              "type": "uint256"
            },
            {
              "internalType": "uint256",
              "name": "endTime",
              "type": "uint256"
            },
            {
              "internalType": "uint256",
              "name": "numOfOptions",
              "type": "uint256"
            },
            {
              "internalType": "string[]",
              "name": "options",
              "type": "string[]"
            },
            {
              "internalType": "string",
              "name": "tallyJsonCID",
              "type": "string"
            }
          ],
          "internalType": "struct DAOManager.PollData",
          "name": "poll_",
          "type": "tuple"
        }
      ],
      "stateMutability": "view",
      "type": "function"
    },
    {
      "inputs": [
        {
          "internalType": "uint256",
          "name": "_page",
          "type": "uint256"
        },
        {
          "internalType": "uint256",
          "name": "_perPage",
          "type": "uint256"
        },
        {
          "internalType": "bool",
          "name": "_ascending",
          "type": "bool"
        }
      ],
      "name": "fetchPolls",
      "outputs": [
        {
          "components": [
            {
              "internalType": "uint256",
              "name": "id",
              "type": "uint256"
            },
            {
              "internalType": "string",
              "name": "name",
              "type": "string"
            },
            {
              "internalType": "bytes",
              "name": "encodedOptions",
              "type": "bytes"
            },
            {
              "internalType": "string",
              "name": "metadata",
              "type": "string"
            },
            {
              "components": [
                {
                  "internalType": "address",
                  "name": "poll",
                  "type": "address"
                },
                {
                  "internalType": "address",
                  "name": "messageProcessor",
                  "type": "address"
                },
                {
                  "internalType": "address",
                  "name": "tally",
                  "type": "address"
                }
              ],
              "internalType": "struct MACI.PollContracts",
              "name": "pollContracts",
              "type": "tuple"
            },
            {
              "internalType": "uint256",
              "name": "startTime",
              "type": "uint256"
            },
            {
              "internalType": "uint256",
              "name": "endTime",
              "type": "uint256"
            },
            {
              "internalType": "uint256",
              "name": "numOfOptions",
              "type": "uint256"
            },
            {
              "internalType": "string[]",
              "name": "options",
              "type": "string[]"
            },
            {
              "internalType": "string",
              "name": "tallyJsonCID",
              "type": "string"
            }
          ],
          "internalType": "struct DAOManager.PollData[]",
          "name": "polls_",
          "type": "tuple[]"
        }
      ],
      "stateMutability": "view",
      "type": "function"
    },
    {
      "inputs": [
        {
          "internalType": "uint256",
          "name": "_proposalId",
          "type": "uint256"
        }
      ],
      "name": "getAllAbstainVotes",
      "outputs": [
        {
          "internalType": "uint256[]",
          "name": "",
          "type": "uint256[]"
        }
      ],
      "stateMutability": "view",
      "type": "function"
    },
    {
      "inputs": [
        {
          "internalType": "uint256",
          "name": "_daoId",
          "type": "uint256"
        }
      ],
      "name": "getAllDaoDocuments",
      "outputs": [
        {
          "internalType": "uint256[]",
          "name": "",
          "type": "uint256[]"
        }
      ],
      "stateMutability": "view",
      "type": "function"
    },
    {
      "inputs": [
        {
          "internalType": "uint256",
          "name": "_daoId",
          "type": "uint256"
        }
      ],
      "name": "getAllDaoMembers",
      "outputs": [
        {
          "internalType": "uint256[]",
          "name": "",
          "type": "uint256[]"
        }
      ],
      "stateMutability": "view",
      "type": "function"
    },
    {
      "inputs": [
        {
          "internalType": "uint256",
          "name": "_daoId",
          "type": "uint256"
        }
      ],
      "name": "getAllDaoProposals",
      "outputs": [
        {
          "internalType": "uint256[]",
          "name": "",
          "type": "uint256[]"
        }
      ],
      "stateMutability": "view",
      "type": "function"
    },
    {
      "inputs": [
        {
          "internalType": "uint256",
          "name": "_proposalId",
          "type": "uint256"
        }
      ],
      "name": "getAllNoVotes",
      "outputs": [
        {
          "internalType": "uint256[]",
          "name": "",
          "type": "uint256[]"
        }
      ],
      "stateMutability": "view",
      "type": "function"
    },
    {
      "inputs": [
        {
          "internalType": "uint256",
          "name": "_userId",
          "type": "uint256"
        }
      ],
      "name": "getAllUserDaos",
      "outputs": [
        {
          "internalType": "uint256[]",
          "name": "",
          "type": "uint256[]"
        }
      ],
      "stateMutability": "view",
      "type": "function"
    },
    {
      "inputs": [
        {
          "internalType": "uint256",
          "name": "_proposalId",
          "type": "uint256"
        }
      ],
      "name": "getAllVoters",
      "outputs": [
        {
          "internalType": "uint256[]",
          "name": "",
          "type": "uint256[]"
        }
      ],
      "stateMutability": "view",
      "type": "function"
    },
    {
      "inputs": [
        {
          "internalType": "uint256",
          "name": "_proposalId",
          "type": "uint256"
        }
      ],
      "name": "getAllYesVotes",
      "outputs": [
        {
          "internalType": "uint256[]",
          "name": "",
          "type": "uint256[]"
        }
      ],
      "stateMutability": "view",
      "type": "function"
    },
    {
      "inputs": [
        {
          "internalType": "uint256",
          "name": "_pollId",
          "type": "uint256"
        }
      ],
      "name": "getPoll",
      "outputs": [
        {
          "components": [
            {
              "internalType": "address",
              "name": "poll",
              "type": "address"
            },
            {
              "internalType": "address",
              "name": "messageProcessor",
              "type": "address"
            },
            {
              "internalType": "address",
              "name": "tally",
              "type": "address"
            }
          ],
          "internalType": "struct MACI.PollContracts",
          "name": "pollContracts",
          "type": "tuple"
        }
      ],
      "stateMutability": "view",
      "type": "function"
    },
    {
      "inputs": [
        {
          "internalType": "address",
          "name": "_poll",
          "type": "address"
        }
      ],
      "name": "getPollId",
      "outputs": [
        {
          "internalType": "uint256",
          "name": "pollId",
          "type": "uint256"
        }
      ],
      "stateMutability": "view",
      "type": "function"
    },
    {
      "inputs": [],
      "name": "getStateTreeRoot",
      "outputs": [
        {
          "internalType": "uint256",
          "name": "root",
          "type": "uint256"
        }
      ],
      "stateMutability": "view",
      "type": "function"
    },
    {
      "inputs": [
        {
          "internalType": "uint256",
          "name": "_userId",
          "type": "uint256"
        },
        {
          "internalType": "uint256",
          "name": "_proposalId",
          "type": "uint256"
        }
      ],
      "name": "hasVoted",
      "outputs": [
        {
          "internalType": "bool",
          "name": "",
          "type": "bool"
        }
      ],
      "stateMutability": "view",
      "type": "function"
    },
    {
      "inputs": [
        {
          "internalType": "uint256[2]",
          "name": "array",
          "type": "uint256[2]"
        }
      ],
      "name": "hash2",
      "outputs": [
        {
          "internalType": "uint256",
          "name": "result",
          "type": "uint256"
        }
      ],
      "stateMutability": "pure",
      "type": "function"
    },
    {
      "inputs": [
        {
          "internalType": "uint256[3]",
          "name": "array",
          "type": "uint256[3]"
        }
      ],
      "name": "hash3",
      "outputs": [
        {
          "internalType": "uint256",
          "name": "result",
          "type": "uint256"
        }
      ],
      "stateMutability": "pure",
      "type": "function"
    },
    {
      "inputs": [
        {
          "internalType": "uint256[4]",
          "name": "array",
          "type": "uint256[4]"
        }
      ],
      "name": "hash4",
      "outputs": [
        {
          "internalType": "uint256",
          "name": "result",
          "type": "uint256"
        }
      ],
      "stateMutability": "pure",
      "type": "function"
    },
    {
      "inputs": [
        {
          "internalType": "uint256[5]",
          "name": "array",
          "type": "uint256[5]"
        }
      ],
      "name": "hash5",
      "outputs": [
        {
          "internalType": "uint256",
          "name": "result",
          "type": "uint256"
        }
      ],
      "stateMutability": "pure",
      "type": "function"
    },
    {
      "inputs": [
        {
          "internalType": "uint256",
          "name": "left",
          "type": "uint256"
        },
        {
          "internalType": "uint256",
          "name": "right",
          "type": "uint256"
        }
      ],
      "name": "hashLeftRight",
      "outputs": [
        {
          "internalType": "uint256",
          "name": "result",
          "type": "uint256"
        }
      ],
      "stateMutability": "pure",
      "type": "function"
    },
    {
      "inputs": [
        {
          "components": [
            {
              "internalType": "uint256[10]",
              "name": "data",
              "type": "uint256[10]"
            }
          ],
          "internalType": "struct DomainObjs.Message",
          "name": "_message",
          "type": "tuple"
        },
        {
          "components": [
            {
              "internalType": "uint256",
              "name": "x",
              "type": "uint256"
            },
            {
              "internalType": "uint256",
              "name": "y",
              "type": "uint256"
            }
          ],
          "internalType": "struct DomainObjs.PubKey",
          "name": "_encPubKey",
          "type": "tuple"
        }
      ],
      "name": "hashMessageAndEncPubKey",
      "outputs": [
        {
          "internalType": "uint256",
          "name": "msgHash",
          "type": "uint256"
        }
      ],
      "stateMutability": "pure",
      "type": "function"
    },
    {
      "inputs": [
        {
          "components": [
            {
              "components": [
                {
                  "internalType": "uint256",
                  "name": "x",
                  "type": "uint256"
                },
                {
                  "internalType": "uint256",
                  "name": "y",
                  "type": "uint256"
                }
              ],
              "internalType": "struct DomainObjs.PubKey",
              "name": "pubKey",
              "type": "tuple"
            },
            {
              "internalType": "uint256",
              "name": "voiceCreditBalance",
              "type": "uint256"
            },
            {
              "internalType": "uint256",
              "name": "timestamp",
              "type": "uint256"
            }
          ],
          "internalType": "struct DomainObjs.StateLeaf",
          "name": "_stateLeaf",
          "type": "tuple"
        }
      ],
      "name": "hashStateLeaf",
      "outputs": [
        {
          "internalType": "uint256",
          "name": "ciphertext",
          "type": "uint256"
        }
      ],
      "stateMutability": "pure",
      "type": "function"
    },
    {
      "inputs": [],
      "name": "initialVoiceCreditProxy",
      "outputs": [
        {
          "internalType": "contract InitialVoiceCreditProxy",
          "name": "",
          "type": "address"
        }
      ],
      "stateMutability": "view",
      "type": "function"
    },
    {
      "inputs": [
        {
          "internalType": "uint256",
          "name": "",
          "type": "uint256"
        },
        {
          "internalType": "uint256",
          "name": "",
          "type": "uint256"
        }
      ],
      "name": "isPublicKeyRegistered",
      "outputs": [
        {
          "internalType": "bool",
          "name": "",
          "type": "bool"
        }
      ],
      "stateMutability": "view",
      "type": "function"
    },
    {
      "inputs": [
        {
          "internalType": "uint256",
          "name": "_daoId",
          "type": "uint256"
        },
        {
          "internalType": "address",
          "name": "_callerWalletAddress",
          "type": "address"
        }
      ],
      "name": "joinDao",
      "outputs": [],
      "stateMutability": "nonpayable",
      "type": "function"
    },
    {
      "inputs": [],
      "name": "lazyIMTData",
      "outputs": [
        {
          "internalType": "uint40",
          "name": "maxIndex",
          "type": "uint40"
        },
        {
          "internalType": "uint40",
          "name": "numberOfLeaves",
          "type": "uint40"
        }
      ],
      "stateMutability": "view",
      "type": "function"
    },
    {
      "inputs": [],
      "name": "maxSignups",
      "outputs": [
        {
          "internalType": "uint256",
          "name": "",
          "type": "uint256"
        }
      ],
      "stateMutability": "view",
      "type": "function"
    },
    {
      "inputs": [],
      "name": "messageProcessorFactory",
      "outputs": [
        {
          "internalType": "contract IMessageProcessorFactory",
          "name": "",
          "type": "address"
        }
      ],
      "stateMutability": "view",
      "type": "function"
    },
    {
      "inputs": [],
      "name": "nextPollId",
      "outputs": [
        {
          "internalType": "uint256",
          "name": "",
          "type": "uint256"
        }
      ],
      "stateMutability": "view",
      "type": "function"
    },
    {
      "inputs": [],
      "name": "numSignUps",
      "outputs": [
        {
          "internalType": "uint256",
          "name": "signUps",
          "type": "uint256"
        }
      ],
      "stateMutability": "view",
      "type": "function"
    },
    {
      "inputs": [],
      "name": "owner",
      "outputs": [
        {
          "internalType": "address",
          "name": "",
          "type": "address"
        }
      ],
      "stateMutability": "view",
      "type": "function"
    },
    {
      "inputs": [
        {
          "internalType": "uint256[2]",
          "name": "dataToPad",
          "type": "uint256[2]"
        }
      ],
      "name": "padAndHashMessage",
      "outputs": [
        {
          "components": [
            {
              "internalType": "uint256[10]",
              "name": "data",
              "type": "uint256[10]"
            }
          ],
          "internalType": "struct DomainObjs.Message",
          "name": "message",
          "type": "tuple"
        },
        {
          "components": [
            {
              "internalType": "uint256",
              "name": "x",
              "type": "uint256"
            },
            {
              "internalType": "uint256",
              "name": "y",
              "type": "uint256"
            }
          ],
          "internalType": "struct DomainObjs.PubKey",
          "name": "padKey",
          "type": "tuple"
        },
        {
          "internalType": "uint256",
          "name": "msgHash",
          "type": "uint256"
        }
      ],
      "stateMutability": "pure",
      "type": "function"
    },
    {
      "inputs": [],
      "name": "pollFactory",
      "outputs": [
        {
          "internalType": "contract IPollFactory",
          "name": "",
          "type": "address"
        }
      ],
      "stateMutability": "view",
      "type": "function"
    },
    {
      "inputs": [
        {
          "internalType": "address",
          "name": "",
          "type": "address"
        }
      ],
      "name": "pollIds",
      "outputs": [
        {
          "internalType": "uint256",
          "name": "",
          "type": "uint256"
        }
      ],
      "stateMutability": "view",
      "type": "function"
    },
    {
      "inputs": [
        {
          "internalType": "uint256",
          "name": "",
          "type": "uint256"
        }
      ],
      "name": "polls",
      "outputs": [
        {
          "internalType": "address",
          "name": "poll",
          "type": "address"
        },
        {
          "internalType": "address",
          "name": "messageProcessor",
          "type": "address"
        },
        {
          "internalType": "address",
          "name": "tally",
          "type": "address"
        }
      ],
      "stateMutability": "view",
      "type": "function"
    },
    {
      "inputs": [
        {
          "internalType": "uint256",
          "name": "",
          "type": "uint256"
        },
        {
          "internalType": "uint256",
          "name": "",
          "type": "uint256"
        }
      ],
      "name": "proposalIdtoAbstainVoters",
      "outputs": [
        {
          "internalType": "uint256",
          "name": "",
          "type": "uint256"
        }
      ],
      "stateMutability": "view",
      "type": "function"
    },
    {
      "inputs": [
        {
          "internalType": "uint256",
          "name": "",
          "type": "uint256"
        },
        {
          "internalType": "uint256",
          "name": "",
          "type": "uint256"
        }
      ],
      "name": "proposalIdtoNoVoters",
      "outputs": [
        {
          "internalType": "uint256",
          "name": "",
          "type": "uint256"
        }
      ],
      "stateMutability": "view",
      "type": "function"
    },
    {
      "inputs": [
        {
          "internalType": "uint256",
          "name": "",
          "type": "uint256"
        }
      ],
      "name": "proposalIdtoProposal",
      "outputs": [
        {
          "internalType": "uint256",
          "name": "proposalId",
          "type": "uint256"
        },
        {
          "internalType": "uint256",
          "name": "proposalType",
          "type": "uint256"
        },
        {
          "internalType": "string",
          "name": "proposalTitleAndDesc",
          "type": "string"
        },
        {
          "internalType": "uint256",
          "name": "proposerId",
          "type": "uint256"
        },
        {
          "internalType": "uint256",
          "name": "votingThreshold",
          "type": "uint256"
        },
        {
          "internalType": "uint256",
          "name": "daoId",
          "type": "uint256"
        },
        {
          "internalType": "address",
          "name": "votingTokenAddress",
          "type": "address"
        },
        {
          "internalType": "uint256",
          "name": "beginningTime",
          "type": "uint256"
        },
        {
          "internalType": "uint256",
          "name": "endingTime",
          "type": "uint256"
        },
        {
          "internalType": "uint256",
          "name": "passingThreshold",
          "type": "uint256"
        },
        {
          "internalType": "bool",
          "name": "voteOnce",
          "type": "bool"
        }
      ],
      "stateMutability": "view",
      "type": "function"
    },
    {
      "inputs": [
        {
          "internalType": "uint256",
          "name": "",
          "type": "uint256"
        },
        {
          "internalType": "uint256",
          "name": "",
          "type": "uint256"
        }
      ],
      "name": "proposalIdtoVoters",
      "outputs": [
        {
          "internalType": "uint256",
          "name": "",
          "type": "uint256"
        }
      ],
      "stateMutability": "view",
      "type": "function"
    },
    {
      "inputs": [
        {
          "internalType": "uint256",
          "name": "",
          "type": "uint256"
        },
        {
          "internalType": "uint256",
          "name": "",
          "type": "uint256"
        }
      ],
      "name": "proposalIdtoYesVoters",
      "outputs": [
        {
          "internalType": "uint256",
          "name": "",
          "type": "uint256"
        }
      ],
      "stateMutability": "view",
      "type": "function"
    },
    {
      "inputs": [
        {
          "internalType": "uint256",
          "name": "",
          "type": "uint256"
        },
        {
          "internalType": "uint256",
          "name": "",
          "type": "uint256"
        }
      ],
      "name": "quadraticNoMappings",
      "outputs": [
        {
          "internalType": "uint256",
          "name": "",
          "type": "uint256"
        }
      ],
      "stateMutability": "view",
      "type": "function"
    },
    {
      "inputs": [
        {
          "internalType": "uint256",
          "name": "",
          "type": "uint256"
        },
        {
          "internalType": "uint256",
          "name": "",
          "type": "uint256"
        }
      ],
      "name": "quadraticYesMappings",
      "outputs": [
        {
          "internalType": "uint256",
          "name": "",
          "type": "uint256"
        }
      ],
      "stateMutability": "view",
      "type": "function"
    },
    {
      "inputs": [
        {
          "internalType": "uint256",
          "name": "_proposalId",
          "type": "uint256"
        },
        {
          "internalType": "uint256",
          "name": "_numTokens",
          "type": "uint256"
        },
        {
          "internalType": "address",
          "name": "_callerWalletAddress",
          "type": "address"
        },
        {
          "internalType": "uint256",
          "name": "_voteFor",
          "type": "uint256"
        }
      ],
      "name": "qvVoting",
      "outputs": [],
      "stateMutability": "nonpayable",
      "type": "function"
    },
    {
      "inputs": [],
      "name": "renounceOwnership",
      "outputs": [],
      "stateMutability": "nonpayable",
      "type": "function"
    },
    {
      "inputs": [
        {
          "components": [
            {
              "internalType": "uint8",
              "name": "intStateTreeDepth",
              "type": "uint8"
            },
            {
              "internalType": "uint8",
              "name": "messageTreeSubDepth",
              "type": "uint8"
            },
            {
              "internalType": "uint8",
              "name": "messageTreeDepth",
              "type": "uint8"
            },
            {
              "internalType": "uint8",
              "name": "voteOptionTreeDepth",
              "type": "uint8"
            }
          ],
          "internalType": "struct Params.TreeDepths",
          "name": "_treeDepths",
          "type": "tuple"
        },
        {
          "components": [
            {
              "internalType": "uint256",
              "name": "x",
              "type": "uint256"
            },
            {
              "internalType": "uint256",
              "name": "y",
              "type": "uint256"
            }
          ],
          "internalType": "struct DomainObjs.PubKey",
          "name": "_coordinatorPubKey",
          "type": "tuple"
        },
        {
          "internalType": "address",
          "name": "_verifier",
          "type": "address"
        },
        {
          "internalType": "address",
          "name": "_vkRegistry",
          "type": "address"
        }
      ],
      "name": "setConfig",
      "outputs": [],
      "stateMutability": "nonpayable",
      "type": "function"
    },
    {
      "inputs": [
        {
          "internalType": "uint256[]",
          "name": "array",
          "type": "uint256[]"
        }
      ],
      "name": "sha256Hash",
      "outputs": [
        {
          "internalType": "uint256",
          "name": "result",
          "type": "uint256"
        }
      ],
      "stateMutability": "pure",
      "type": "function"
    },
    {
      "inputs": [
        {
          "components": [
            {
              "internalType": "uint256",
              "name": "x",
              "type": "uint256"
            },
            {
              "internalType": "uint256",
              "name": "y",
              "type": "uint256"
            }
          ],
          "internalType": "struct DomainObjs.PubKey",
          "name": "_pubKey",
          "type": "tuple"
        },
        {
          "internalType": "bytes",
          "name": "_signUpGatekeeperData",
          "type": "bytes"
        },
        {
          "internalType": "bytes",
          "name": "_initialVoiceCreditProxyData",
          "type": "bytes"
        }
      ],
      "name": "signUp",
      "outputs": [],
      "stateMutability": "nonpayable",
      "type": "function"
    },
    {
      "inputs": [],
      "name": "signUpGatekeeper",
      "outputs": [
        {
          "internalType": "contract SignUpGatekeeper",
          "name": "",
          "type": "address"
        }
      ],
      "stateMutability": "view",
      "type": "function"
    },
    {
      "inputs": [],
      "name": "stateTreeDepth",
      "outputs": [
        {
          "internalType": "uint8",
          "name": "",
          "type": "uint8"
        }
      ],
      "stateMutability": "view",
      "type": "function"
    },
    {
      "inputs": [],
      "name": "tallyFactory",
      "outputs": [
        {
          "internalType": "contract ITallyFactory",
          "name": "",
          "type": "address"
        }
      ],
      "stateMutability": "view",
      "type": "function"
    },
    {
      "inputs": [],
      "name": "totalDaos",
      "outputs": [
        {
          "internalType": "uint256",
          "name": "",
          "type": "uint256"
        }
      ],
      "stateMutability": "view",
      "type": "function"
    },
    {
      "inputs": [],
      "name": "totalDocuments",
      "outputs": [
        {
          "internalType": "uint256",
          "name": "",
          "type": "uint256"
        }
      ],
      "stateMutability": "view",
      "type": "function"
    },
    {
      "inputs": [],
      "name": "totalProposals",
      "outputs": [
        {
          "internalType": "uint256",
          "name": "",
          "type": "uint256"
        }
      ],
      "stateMutability": "view",
      "type": "function"
    },
    {
      "inputs": [],
      "name": "totalUsers",
      "outputs": [
        {
          "internalType": "uint256",
          "name": "",
          "type": "uint256"
        }
      ],
      "stateMutability": "view",
      "type": "function"
    },
    {
      "inputs": [
        {
          "internalType": "address",
          "name": "newOwner",
          "type": "address"
        }
      ],
      "name": "transferOwnership",
      "outputs": [],
      "stateMutability": "nonpayable",
      "type": "function"
    },
    {
      "inputs": [],
      "name": "treeDepths",
      "outputs": [
        {
          "internalType": "uint8",
          "name": "intStateTreeDepth",
          "type": "uint8"
        },
        {
          "internalType": "uint8",
          "name": "messageTreeSubDepth",
          "type": "uint8"
        },
        {
          "internalType": "uint8",
          "name": "messageTreeDepth",
          "type": "uint8"
        },
        {
          "internalType": "uint8",
          "name": "voteOptionTreeDepth",
          "type": "uint8"
        }
      ],
      "stateMutability": "view",
      "type": "function"
    },
    {
      "inputs": [
        {
          "internalType": "uint256",
          "name": "_pollId",
          "type": "uint256"
        },
        {
          "internalType": "string",
          "name": "_tallyJsonCID",
          "type": "string"
        }
      ],
      "name": "updatePollTallyCID",
      "outputs": [],
      "stateMutability": "nonpayable",
      "type": "function"
    },
    {
      "inputs": [
        {
          "internalType": "string",
          "name": "_documentTitle",
          "type": "string"
        },
        {
          "internalType": "string",
          "name": "_documentDesc",
          "type": "string"
        },
        {
          "internalType": "uint256",
          "name": "_daoId",
          "type": "uint256"
        },
        {
          "internalType": "string",
          "name": "_ipfsHash",
          "type": "string"
        }
      ],
      "name": "uploadDocument",
      "outputs": [],
      "stateMutability": "nonpayable",
      "type": "function"
    },
    {
      "inputs": [
        {
          "internalType": "uint256",
          "name": "",
          "type": "uint256"
        },
        {
          "internalType": "uint256",
          "name": "",
          "type": "uint256"
        }
      ],
      "name": "userIdtoDaos",
      "outputs": [
        {
          "internalType": "uint256",
          "name": "",
          "type": "uint256"
        }
      ],
      "stateMutability": "view",
      "type": "function"
    },
    {
      "inputs": [
        {
          "internalType": "uint256",
          "name": "",
          "type": "uint256"
        }
      ],
      "name": "userIdtoUser",
      "outputs": [
        {
          "internalType": "uint256",
          "name": "userId",
          "type": "uint256"
        },
        {
          "internalType": "string",
          "name": "userName",
          "type": "string"
        },
        {
          "internalType": "string",
          "name": "userEmail",
          "type": "string"
        },
        {
          "internalType": "string",
          "name": "description",
          "type": "string"
        },
        {
          "internalType": "string",
          "name": "profileImage",
          "type": "string"
        },
        {
          "internalType": "address",
          "name": "userWallet",
          "type": "address"
        }
      ],
      "stateMutability": "view",
      "type": "function"
    },
    {
      "inputs": [],
      "name": "userSideAdmin",
      "outputs": [
        {
          "internalType": "address",
          "name": "",
          "type": "address"
        }
      ],
      "stateMutability": "view",
      "type": "function"
    },
    {
      "inputs": [
        {
          "internalType": "address",
          "name": "",
          "type": "address"
        }
      ],
      "name": "userWallettoUserId",
      "outputs": [
        {
          "internalType": "uint256",
          "name": "",
          "type": "uint256"
        }
      ],
      "stateMutability": "view",
      "type": "function"
    },
    {
      "inputs": [],
      "name": "verifier",
      "outputs": [
        {
          "internalType": "address",
          "name": "",
          "type": "address"
        }
      ],
      "stateMutability": "view",
      "type": "function"
    },
    {
      "inputs": [],
      "name": "vkRegistry",
      "outputs": [
        {
          "internalType": "address",
          "name": "",
          "type": "address"
        }
      ],
      "stateMutability": "view",
      "type": "function"
    },
    {
      "inputs": [
        {
          "internalType": "uint256",
          "name": "_proposalId",
          "type": "uint256"
        },
        {
          "internalType": "uint256",
          "name": "_voteFor",
          "type": "uint256"
        },
        {
          "internalType": "address",
          "name": "_callerWalletAddress",
          "type": "address"
        }
      ],
      "name": "voteForProposal",
      "outputs": [],
      "stateMutability": "nonpayable",
      "type": "function"
    }
  ],
  "transactionHash": "0xce5e3a9015405e00fa55c1582c2cf36ecf9f8286c671d22a6bea3ccc68833e18",
  "args": [
    "0xffBb7Fe32e9e67Bf56B225583891770aBcb33A75",
    "0xa1f6ebc198aDe67ca05ABaF600B816bB965a1bB7",
    "0xbf1989e54E881446D3E8E1890bfFAcA4dE9c6C69",
    "0xDF8C49A0fB4DdB416B11DE81fE85D8dF8690Aa7C",
    "0x66071763EE8d2a8c68C4C9c973ef5f9e30E8A5a2",
    10,
    [
      "16015576667038038422103932363190100635991292382181099511410843174865570503661",
      "166510078825589460025300915201657086611944528317298994959376081297530246971",
      "10057734083972610459557695472359628128485394923403014377687504571662791937025",
      "4904828619307091008204672239231377290495002626534171783829482835985709082773",
      "18694062287284245784028624966421731916526814537891066525886866373016385890569"
    ]
  ],
  "numDeployments": 1,
  "solcInputHash": "9963ddb2324073a26a885cd3325ff438",
  "bytecode": "0x6101608060405234620004f757620065b780380380916200002182856200052e565b83398101610160918281830312620004f7578051906001600160a01b038083168303620004f7576020820151938185168503620004f7576040830151928284168403620004f7576060810151908382168203620004f7576080810151928484168403620004f75760a08201519860ff8a168a03620004f7578160df84011215620004f7576040519260a084016001600160401b03811185821017620004fc5760405283918101928311620004f75760c001905b828210620004e657505050602060ff891611620004d457600160ff89161b6000198101908111620002c55764ffffffffff1660018060501b031960075416179764ffffffffff8960281c1697600189019964ffffffffff8b11620002c55760288b901b69ffffffffff00000000001617600755889760007f0ef71f46e11a513c599eed9dd03576c33439bcfb1cee155316f90541e41649ba5b64ffffffffff620001978c6200019160ff861664ff000000008760201b16620005b9565b6200059f565b1660005260086020528060406000205560018b1615620002db5760001964ffffffffff8c160164ffffffffff8111620002c5576200023391620001ee6020926200019160ff871664ff0000000088871b16620005b9565b9064ffffffffff60405192620002048462000512565b1660005260088352604060002054825282820152604051809381926314d2f97b60e11b8352600483016200056f565b038173Db6F8a73C48a17D8462762296ef353B5D0c113ea5af4908115620002b95760009162000279575b5060019a8b1c647fffffffff169a9190910160ff16906200016d565b906020823d602011620002b0575b8162000296602093836200052e565b81010312620002ad57505164ffffffffff6200025d565b80fd5b3d915062000287565b6040513d6000823e3d90fd5b634e487b7160e01b600052601160045260246000fd5b505060c05260e0526101009586526101209283526101409384526080819052620003089060ff1662000552565b60a05260005b60058110620004c15750506200035260206040516200032d8162000512565b60018152600182820152604051809381926314d2f97b60e11b8352600483016200056f565b038173Db6F8a73C48a17D8462762296ef353B5D0c113ea5af4908115620002b95760009162000489575b5015620004775733156200045e5760098054336001600160a01b03198083168217909355604051959091167f8be0079c531659141344cd1fd0a4f28419497f9722a3daafe3b4186f6b6457e0600080a36000600b556000600c556000600d556000600f553390600a541617600a5542600e55615fe59384620005d2853960805184611fee015260a05184818161094001526137af015260c05184818161359c0152615057015260e05184818161423801526150cd01525183818161216801526151430152518281816137fc01526141f5015251818181610ee501526138800152f35b604051631e4fbdf760e01b815260006004820152602490fd5b604051633d7ba68560e21b8152600490fd5b906020823d602011620004b8575b81620004a6602093836200052e565b81010312620002ad575051856200037c565b3d915062000497565b600190602083519301928155016200030e565b604051633e104c7760e01b8152600490fd5b8151815260209182019101620000d4565b600080fd5b634e487b7160e01b600052604160045260246000fd5b604081019081106001600160401b03821117620004fc57604052565b601f909101601f19168101906001600160401b03821190821017620004fc57604052565b8015620005695760ff8111620002c5576001901b90565b50600190565b6040810192916000915b600283106200058757505050565b60019082518152602080910192019201919062000579565b91909164ffffffffff80809416911601918211620002c557565b64ffffffffff9182169082160391908211620002c55756fe608080604052600436101561001357600080fd5b600090813560e01c908163055575eb1461422457508063079410db146141df5780630e1b191f14613e055780631096c30e14613db2578063122db15314613d8a57806313fb893214613d615780631a56763614613cfc5780631a8cbcaa14613c975780631b6ef3c514613c0b5780632b78657114613bed5780632b7ac3f314613bc45780632dba654714613b9d57806331e766a514613b785780633364120a1461372a5780633364c4c8146135cb578063343393b5146135865780633bd8e51e146134cf5780633dfb88b2146134775780633e33c05e146131f1578063423f3e191461317557806345404bbd1461311057806346e47f9a146130a95780634aaa315d146130445780634c58b7a914612cd55780634d5da86b14612419578063553181ec146123fb57806356a58ebf1461233557806356f28b0a1461230357806358bfc379146121f65780635bb93995146121c557806362a361bb1461219757806362b31f1e1461215257806364390ff11461212e57806364e0ece114612012578063652c76e414611fd4578063683f3dc314611fb85780636b4575e214611ee95780636cd84de714611eb75780636d85003314611e85578063715018a614611e3957806372524bf314611e0d578063756b425914611cce5780637d0a81c814611c8c5780637eb3282614611c635780637ee0a23014611b4f5780638a2a3dfb14611ab35780638da5cb5b14611a8a578063941a35de1461159e57806394316829146114ae5780639c4ae5e1146114815780639cfced9714611421578063a3f9ac62146113bc578063a78d80fc1461139e578063a843e07614610f14578063aab4a67014610ecf578063aab6568614610e6a578063abe7095114610e31578063ac2f007414610de2578063ac98e5df14610da0578063b686872014610d70578063b87802c814610d46578063ba8f07a314610d14578063bea140b314610c14578063bee5eabe14610be2578063bff1f9e114610bc4578063bff3375e14610b5f578063c228995d14610b2d578063c8cf9ab214610af4578063c9354bb514610ad6578063cc6e4a3814610aa4578063cd585b37146109b3578063cea3e53014610995578063d7a71b9a14610963578063df82635a14610928578063eae24c7714610654578063edbfe83f14610529578063f2fde38b146104b1578063f55082ce1461044c578063f9d5b5de1461040c5763fcde7bd91461039157600080fd5b3461040957602080600319360112610405576004358252601f815260408220916040518092808554928381520194835280832092905b8282106103ee576103ea856103de81890382614325565b60405191829182614598565b0390f35b8354865294850194600193840193909101906103c7565b5080fd5b80fd5b50346104095761041b36614730565b91908152601c6020526040812090815483101561040957602061043e8484614746565b90546040519160031b1c8152f35b503461040957602080600319360112610405576004358252601c815260408220916040518092808554928381520194835280832092905b82821061049a576103ea856103de81890382614325565b835486529485019460019384019390910190610483565b5034610409576020366003190112610409576104cb6143ee565b6104d361478b565b6001600160a01b0390811690811561051057600980546001600160a01b03198116841790915516600080516020615f90833981519152600080a380f35b604051631e4fbdf760e01b815260048101849052602490fd5b50346104095760403660031901126104095736602312156104095761054d366146f8565b604051610559816142ef565b604051610565816142d3565b6101409182368337526040519061057b82614282565b838252836020809301528160405193610593856142d3565b8236863780518552015182840152604051906105ae82614282565b7f171e826ad4a870fd925e0bf0e87884e70e080879c2205ef10114f28a3b6f6dd78252828201917f2bd407d897fbbca9f88adfd2d15252e69de8c1564eb4d3d27162e259172f1a1d835260405194610605866142ef565b85526106118186615e11565b6040519551969094865b600a831061063f575050506101a09550519084015251610160830152610180820152f35b81806001928b5181520199019201919761061b565b503461040957606036600319011261040957602435906004356106756143d8565b92818352601860209181835261069a610695876005604089200154614e94565b614d36565b8385528183526106b36007604087200154421015614d81565b8385528183526106cb60086040872001544210614dc6565b838552818352600180604087200154036108e75783855281835260408086206006015490516370a0823160e01b8152336004820152926001600160a01b03909116908484602481855afa9384156108dc5787946108a8575b5033875260168552610749604088205494878952828752600460408a20015411156148f5565b6107538685614e44565b86885281865260ff600a60408a20015416610868575b509684918798876107a09899528352600460408a20015491896040518099819582946323b872dd60e01b8452309060048501614e22565b03925af192831561085d577f24930ecca7f60d4736cd965cb5522694ea4b32308405d3f88fea2f59eff63caa94604094610830575b50600182036107fd57858752601c81526107f1838589206148a7565b8351928352820152a280f35b6002820361081d57858752601d8152610818838589206148a7565b6107f1565b858752601e8152610818838589206148a7565b61084f90823d8411610856575b6108478183614325565b810190614e0a565b50386107d5565b503d61083d565b6040513d88823e3d90fd5b6108725738610769565b60405162461bcd60e51b815260048101869052600e60248201526d155cd95c881a185cc8159bdd195960921b6044820152606490fd5b9093508481813d83116108d5575b6108c08183614325565b810103126108d057519238610723565b600080fd5b503d6108b6565b6040513d89823e3d90fd5b60405162461bcd60e51b8152600481018490526019602482015278566f74696e672054797065206973206e6f74207965732f6e6f60381b6044820152606490fd5b503461040957806003193601126104095760206040517f00000000000000000000000000000000000000000000000000000000000000008152f35b50346104095760ff604060209261097936614730565b9082526026855282822090825284522054166040519015158152f35b50346104095780600319360112610409576020600e54604051908152f35b50346104095760203660031901126104095760409060043581526015602052208054604051916109f1836109ea8160018501614662565b0384614325565b610a9a60405191610a09836109ea8160028501614662565b610a8c604051610a2781610a208160038701614662565b0382614325565b610a7e60405193610a4685610a3f8160048501614662565b0386614325565b600560018060a01b039101541695610a70604051998a998a5260c060208b015260c08a0190614453565b9088820360408a0152614453565b908682036060880152614453565b908482036080860152614453565b9060a08301520390f35b503461040957610ab336614730565b91908152601d6020526040812090815483101561040957602061043e8484614746565b50346104095780600319360112610409576020600d54604051908152f35b5034610409576020366003190112610409576020906040906001600160a01b03610b1c6143ee565b168152602583522054604051908152f35b503461040957610b3c36614730565b91908152601b6020526040812090815483101561040957602061043e8484614746565b503461040957602080600319360112610405576004358252601b815260408220916040518092808554928381520194835280832092905b828210610bad576103ea856103de81890382614325565b835486529485019460019384019390910190610b96565b50346104095780600319360112610409576020600b54604051908152f35b503461040957610bf136614730565b91908152601a6020526040812090815483101561040957602061043e8484614746565b50346104095760603660031901126104095736602312156104095760405190610c3c82614267565b606482368211610d10576004905b828210610d005750506040516304b98e1d60e31b81529283908390600483015b60038310610ce6575050506020918173644929660057bc5680453C80BBea3ea08b3F34d85af4908115610cda5790610ca8575b602090604051908152f35b506020813d8211610cd2575b81610cc160209383614325565b810103126108d05760209051610c9d565b3d9150610cb4565b604051903d90823e3d90fd5b815181528693506001929092019160209182019101610c6a565b8135815260209182019101610c4a565b8280fd5b503461040957610d2336614730565b9190815260236020526040812090815483101561040957602061043e8484614746565b50346104095760203660031901126104095760043560058110156104055760209054604051908152f35b5034610409578060031936011261040957604060075481519064ffffffffff90818116835260281c166020820152f35b5034610409578060031936011261040957608060105460ff604051918181168352818160081c166020840152818160101c16604084015260181c166060820152f35b5034610409576020366003190112610409576040606091600435815260066020522060018060a01b03908181541691600281600184015416920154169060405192835260208301526040820152f35b5034610409576020366003190112610409576020906040906001600160a01b03610e596143ee565b168152601683522054604051908152f35b503461040957602080600319360112610405576004358252601e815260408220916040518092808554928381520194835280832092905b828210610eb8576103ea856103de81890382614325565b835486529485019460019384019390910190610ea1565b50346104095780600319360112610409576040517f00000000000000000000000000000000000000000000000000000000000000006001600160a01b03168152602090f35b50346104095760a0366003190112610409576001600160401b039060043582811161040557610f4790369060040161438e565b602435838111610d1057610f5f90369060040161438e565b9060443584811161139a57610f7890369060040161438e565b9060643585811161139657610f9190369060040161438e565b610f996143ac565b92610fa5600b546147b7565b9182600b5560405191610fb78361429d565b83835260208084018681526040808601998a5260608601938452608086019485526001600160a01b03891660a08701818152978c5260159093528a20945185555180519198918b81116113825780600187019261101e826110188654614628565b866147dd565b6020908d601f841160011461131e5792611313575b50508160011b916000199060031b1c19161790555b5180518a811161129057806002860192611066826110188654614628565b602090601f83116001146112af578c926112a4575b50508160011b916000199060031b1c19161790555b51805160038401918a82116112905781906110af826110188654614628565b602090601f831160011461122c578b92611221575b50508160011b916000199060031b1c19161790555b5196875190811161120d576110fe816110f56004850154614628565b600485016147dd565b6020601f821160011461118d57908060059392899a600080516020615f70833981519152999a92611182575b50508160011b916000199060031b1c19161760048201555b019060018060a01b0390511660018060a01b0319825416179055600b54938552601660205283604086205561117c60405192839283614824565b0390a280f35b01519050388061112a565b6004830188526020882098885b601f19841681106111f5575091600080516020615f708339815191529798996001926005959483601f198116106111dc575b505050811b016004820155611142565b015160001960f88460031b161c191690553880806111cc565b828201518b556001909a01996020928301920161119a565b634e487b7160e01b87526041600452602487fd5b0151905038806110c4565b848c5260208c209250601f1984168c5b818110611278575090846001959493921061125f575b505050811b0190556110d9565b015160001960f88460031b161c19169055388080611252565b9293602060018192878601518155019501930161123c565b634e487b7160e01b8a52604160045260248afd5b01519050388061107b565b848d5260208d209250601f1984168d5b8181106112fb57509084600195949392106112e2575b505050811b019055611090565b015160001960f88460031b161c191690553880806112d5565b929360206001819287860151815501950193016112bf565b015190503880611033565b858152602081209350601f198516905b81811061136a5750908460019594939210611351575b505050811b019055611048565b015160001960f88460031b161c19169055388080611344565b9293602060018192878601518155019501930161132e565b634e487b7160e01b8b52604160045260248bfd5b8480fd5b8380fd5b50346104095780600319360112610409576020600c54604051908152f35b503461040957602080600319360112610405576004358252601a815260408220916040518092808554928381520194835280832092905b82821061140a576103ea856103de81890382614325565b8354865294850194600193840193909101906113f3565b50346104095760a0366003190112610409573660231215610409576040516114488161430a565b60a4813682116108d0576020926004905b838210611472578461146a84615425565b604051908152f35b81358152908401908401611459565b503461040957604060209161149536614730565b9082526021845282822090825283522054604051908152f35b503461040957602036600319011261040957604090600435815260176020522080546103ea600183015492600760ff604051926114f9846114f28160028501614662565b0385614325565b6040519361150e85610a3f8160038601614662565b61156c60048301549561155e600585015493611540600687015496611539604051809b819301614662565b0389614325565b6040519b8c9b8c5260208c01526101208060408d01528b0190614453565b9089820360608b0152614453565b94608088015260a087015260018060a01b03811660c087015260a01c16151560e0850152838203610100850152614453565b503461040957610100366003190112610409576004356001600160401b038111610405576115d090369060040161438e565b906024356001600160401b038111610405576115f090369060040161438e565b916115f96143ac565b60a4359081151582036108d05761160e614404565b9160e4356001600160401b038111611a865761162e90369060040161438e565b611639600d546147b7565b600d8190556001600160a01b0385168752601660205260408720549390929061166385151561484c565b60443598670de0b6b3a7640000908a8281020482148b151715611a7257606435908183810204831482151715611a5e576040519b6001600160401b036101208e01908111908e1117611a4857839160608e61012081016040528a81528b60208201528d604082015201520260808c01520260a08a015260018060a01b031660c0890152151560e088015261010087015284526017602052604084208551815560208601516001820155604086015180519060018060401b03821161120d57819061173d826117346002870154614628565b600287016147dd565b602090601f83116001146119d95788926119ce575b50508160011b916000199060031b1c19161760028201555b60608601518051906001600160401b03821161120d5761179a826117916003860154614628565b600386016147dd565b602090601f831160011461195b57918061010094926007948a92611950575b50508160011b916000199060031b1c19161760038201555b6080880151600482015560a088015160058201556006810160018060a01b0360c08a01511681549060ff60a01b60e08c0151151560a01b169160018060a81b031916171790550195015194855160018060401b03811161193c5761183f816118398454614628565b846147dd565b6020601f82116001146118c85781908798600080516020615ef08339815191529798926118bd575b50508160011b916000199060031b1c19161790555b600d548552601960205261189381604087206148a7565b8452601f6020526118aa60408520600d54906148a7565b600d549261117c60405192839283614824565b015190503880611867565b8287526020872097601f198316885b818110611924575091600080516020615ef08339815191529798999184600195941061190b575b505050811b01905561187c565b015160001960f88460031b161c191690553880806118fe565b838301518b556001909a0199602093840193016118d7565b634e487b7160e01b86526041600452602486fd5b0151905038806117b9565b906003840188526020882091885b601f19851681106119b6575092610100949260019260079583601f1981161061199d575b505050811b0160038201556117d1565b015160001960f88460031b161c1916905538808061198d565b91926020600181928685015181550194019201611969565b015190503880611752565b9250600284018852602088209088935b601f1984168510611a2d576001945083601f19811610611a14575b505050811b01600282015561176a565b015160001960f88460031b161c19169055388080611a04565b818101518355602094850194600190930192909101906119e9565b634e487b7160e01b600052604160045260246000fd5b634e487b7160e01b8b52601160045260248bfd5b634e487b7160e01b8a52601160045260248afd5b8580fd5b50346104095780600319360112610409576009546040516001600160a01b039091168152602090f35b5034610409573660031901610180811261040557610140136104095760405190611adc826142ef565b3660231215610409575060405190611af3826142d3565b81610144923684116108d0576004905b848210611b3f57505081526040366101431901126108d05760209161146a9160405191611b2f83614282565b3582526101643584830152615e11565b8135815260209182019101611b03565b503461040957606036600319011261040957600435611b6c6143c2565b6001600160a01b0380611b7d6143d8565b16845260209060168252604085205484865260178352600160408720015403611c1257821684526016815260408420547f91d8f88e2103e9fbf7b05234db8db9719fbb001942620d75ccb0fe36cc3d4e7e9291601f90611bde83151561484c565b85875260198152611bf283604089206148a7565b82875252611c0384604087206148a7565b61117c604051928392836148dc565b60405162461bcd60e51b815260048101839052602360248201527f4f6e6c792061646d696e2063616e2061646420757365727320746f207468652060448201526264616f60e81b6064820152608490fd5b5034610409578060031936011261040957600a546040516001600160a01b039091168152602090f35b503461040957608036600319011261040957602061146a604051611caf81614267565b611cb8366145d3565b8152604435838201526064356040820152615dd5565b503461040957604036600319011261040957600435611ceb6143c2565b81835260206017815260ff600660408620015460a01c16611dd8578284526017815260408085206006015490516370a0823160e01b81526001600160a01b038085166004830181905291949392839186916024918391165afa93841561085d578694611da7575b50611d8e7fdc463d5cc5ec176a75297fc551efa8870a347842d12a5f0a37131f0c661b6e789486885260178452600460408920015411156148f5565b855260168152601f604086205491611bde83151561484c565b93508184813d8311611dd1575b611dbe8183614325565b810103126108d057925192611d8e611d52565b503d611db4565b6064906040519062461bcd60e51b82526004820152600e60248201526d44616f206973205072697661746560901b6044820152fd5b5034610409576040602091611e2136614730565b90825283805282822090825283522054604051908152f35b5034610409578060031936011261040957611e5261478b565b600980546001600160a01b031981169091556000906001600160a01b0316600080516020615f908339815191528280a380f35b503461040957611e9436614730565b9190815260196020526040812090815483101561040957602061043e8484614746565b503461040957611ec636614730565b91908152601e6020526040812090815483101561040957602061043e8484614746565b5034610409576101403660031901126104095760803660231901126108d057604051611f14816142b8565b60243560ff811681036108d057815260443560ff811681036108d057602082015260643560ff811681036108d057604082015260843560ff811681036108d057606082015260403660a31901126108d057604051611f7181614282565b60a435815260c4356020820152611f8661441a565b61010435906001600160a01b03821682036108d05761012435926002841015611a8657611fb594600435614f9b565b80f35b50346104095780600319360112610409576020604051600a8152f35b5034610409578060031936011261040957602060405160ff7f0000000000000000000000000000000000000000000000000000000000000000168152f35b50346104095736600319016101008112610405576080136108d057604051612039816142b8565b60043560ff811681036108d05781526024359060ff821682036108d057602081019182526044359160ff831683036108d057604082019283526064359060ff821682036108d0576060830191825260403660831901126108d057604051906120a082614282565b6084358252602082019260a43584526120b7614404565b9560ff6120c261441a565b966120cb61478b565b511663ff00000062ff000061ff00601054965160081b16935160101b16935160181b169363ffffffff191617171717601055516011555160125560018060a01b03908160018060a01b031993168360135416176013551690601454161760145580f35b503461040957602061214861214236614730565b90614e44565b6040519015158152f35b50346104095780600319360112610409576040517f00000000000000000000000000000000000000000000000000000000000000006001600160a01b03168152602090f35b503461040957604036600319011261040957366023121561040957602061146a6121c0366146f8565b615338565b503461040957602061146a6121d936614730565b604051916121e683614282565b6040368437825283820152615338565b50346104095760209081600319360112610409576004356001600160401b038111610405573660238201121561040557806004013561223481614774565b916122426040519384614325565b8183528483016024819360051b83010191368311611a865791869394916024879401905b8282106122f157505050604051838101809251909590845b8181106122d8575050506122a0816122b194959603601f198101835282614325565b604051928392839251928391614430565b8101039060025afa15610cda57600080516020615f30833981519152905106604051908152f35b825188529686019689968996509092019160010161227e565b81358152879450908501908501612266565b50346104095761231236614730565b91908152601f6020526040812090815483101561040957602061043e8484614746565b5034610409576020366003190112610409576040906004358152601860205220805460018201549160405161237181610a208160028601614662565b6003820154916004810154600582015460018060a01b036006840154166007840154916008850154936123c960ff600a600989015498015416976040519b8c9b8c5260208c01526101608060408d01528b0190614453565b9760608a0152608089015260a088015260c087015260e086015261010085015261012084015215156101408301520390f35b50346104095780600319360112610409576020600f54604051908152f35b50346104095760a0366003190112610409576004356001600160401b0381116104055761244a9036906004016145fb565b906001600160401b0360243511610d1057366023602435011215610d10576001600160401b036004602435013511610d105736602480356004013560051b8135010111610d10576044356001600160401b03811161139a576124b09036906004016145fb565b919060026084351015611396576124c561478b565b60055460135460145460405192959261253e9290916001600160a01b0390811691166124f0836142b8565b60ff6010548181168552818160081c166020860152818160101c16604086015260181c16606084015260405161252581614282565b6011548152601254602082015260843593606435614f9b565b838652600660205261255260408720614935565b9260018060a01b03845116875260256020528460408820556040519560208088015261259e876125906040820160243560040135602480350161498e565b03601f198101895288614325565b6125aa60643542614a17565b96604051906125b8826142d3565b8782526125c6368486614348565b602083015260408201526125db368587614348565b60608201528560808201524260a08201528760c08201526024356004013560e082015261260d60243560040135614774565b61261a6040519182614325565b602480356004810135835201602082015b602480356004013560051b813501018210612ca2575050610100820152604051612654816142ef565b8981526101208201528689526024602052604089209080518255602081015180519060018060401b038211612b2057819061269f826126966001880154614628565b600188016147dd565b602090601f8311600114612c33578d92612c28575b50508160011b916000199060031b1c19161760018301555b60408101518051906001600160401b038211612b205781906126fe826126f56002880154614628565b600288016147dd565b602090601f8311600114612bb9578d92612bae575b50508160011b916000199060031b1c19161760028301555b60608101518051906001600160401b038211612b2057819061275d826127546003880154614628565b600388016147dd565b602090601f8311600114612b3f578d92612b34575b50508160011b916000199060031b1c19161760038301555b608081015180516004840180546001600160a01b03199081166001600160a01b039384161790915560208301516005860180548316918416919091179055604090920151600685018054909316911617905560a0810151600783015560c0810151600883015560e08101516009830155610100810151805190600160401b8211612b2057600a84015482600a860155808310612aa5575b50602001600a84018c5260208c208c915b8383106129b0575050505061012001518051906001600160401b0382116113825761286d82612864600b860154614628565b600b86016147dd565b6020908b601f84116001146129245793600b846128dd95600080516020615ed08339815191529c9b99956129049b99956128f69992612919575b50508160011b916000199060031b1c1916179101555b6128ca6040518099614478565b610100606089015261010088019161496d565b858103608087015260243560040135602480350161498e565b9184830360a086015261496d565b934260c083015260e08201528033940390a380f35b0151905038806128a7565b5090600b84018c5260208c20918c5b601f1985168110612998575093600b600185600080516020615ed08339815191529c9b99956129049b99956128f6996128dd99601f1981161061297f575b505050811b019101556128bd565b015160001960f88460031b161c19169055388080612971565b91926020600181928685015181550194019201612933565b80518051906001600160401b038211612a90578f906129d9836129d38754614628565b876147dd565b602091601f8411600114612a2357928060209360019693879692612a18575b5050600019600383901b1c191690841b1785555b01920192019190612832565b0151905038806129f8565b919085835260208320925b601f1985168110612a78575083602093600196938796938794601f19811610612a5f575b505050811b018555612a0c565b015160001960f88460031b161c19169055388080612a52565b91926020600181928685015181550194019201612a2e565b50634e487b7160e01b8f52604160045260248ffd5b600a85018d5260208d20908382018e5b8284018210612ac657505050612821565b90600191612ad48254614628565b80612ae3575b5050018e612ab5565b601f81118414612afb575050600081555b8f38612ada565b828252612b16601f60208420920160051c82018583016147c6565b6000835555612af4565b634e487b7160e01b8c52604160045260248cfd5b015190503880612772565b9250600385018d5260208d20908d935b601f1984168510612b93576001945083601f19811610612b7a575b505050811b01600383015561278a565b015160001960f88460031b161c19169055388080612b6a565b81810151835560209485019460019093019290910190612b4f565b015190503880612713565b9250600285018d5260208d20908d935b601f1984168510612c0d576001945083601f19811610612bf4575b505050811b01600283015561272b565b015160001960f88460031b161c19169055388080612be4565b81810151835560209485019460019093019290910190612bc9565b0151905038806126b4565b9250600185018d5260208d20908d935b601f1984168510612c87576001945083601f19811610612c6e575b505050811b0160018301556126cc565b015160001960f88460031b161c19169055388080612c5e565b81810151835560209485019460019093019290910190612c43565b6001600160401b03823511612cd15760208091612cc636602486358135010161438e565b81520191019061262b565b8b80fd5b5034610409576080366003190112610409576001600160401b03600435818111610d1057612d0790369060040161438e565b9060243581811161139a57612d2090369060040161438e565b60443592606435838111611a8657612d3c90369060040161438e565b90612d473386614e94565b50612d53600f546147b7565b9182600f553387526020946016865260408820549260405195612d758761429d565b85875287870191825260408701908152606087019384526080870194855260a08701958987528a526022885260408a20965187556001918288019051805190858211613030578c8291612dcc836129d38754614628565b8c91601f8411600114612fcf5792612fc4575b5050600019600383901b1c191690841b1790555b5180516002880191848211612b20578190612e12826110188654614628565b8a908d601f8411600114612f635792612f58575b5050600019600383901b1c191690831b1790555b600386019251805192831161129057612e57836110188654614628565b87908a601f8511600114612eec579360239998979593819382936005999794612ee1575b50501b916000199060031b1c19161790555b5160048401555191015582845252612eab60408320600f54906148a7565b7f1fde1754c4885768c21d9296fa19a786545751f6219e5505a782dfdf86fda8dd61117c600f54926040519182913390836148dc565b015192503880612e7b565b50848b52888b209293929190601f1984168c5b818110612f435750916005979593918560239c9b9a98969410612f2a575b505050811b019055612e8d565b015160001960f88460031b161c19169055388080612f1d565b82840151855593860193928b01928b01612eff565b015190503880612e26565b8581528c8120879550929190601f198516908e5b828210612fad5750508411612f94575b505050811b019055612e3a565b015160001960f88460031b161c19169055388080612f87565b83850151865589979095019493840193018e612f77565b015190503880612ddf565b8581528d8120889550929190601f198516908f5b8282106130195750508411613000575b505050811b019055612df3565b015160001960f88460031b161c19169055388080612ff3565b8385015186558a979095019493840193018f612fe3565b634e487b7160e01b8d52604160045260248dfd5b5034610409576020806003193601126104055760043582526019815260408220916040518092808554928381520194835280832092905b828210613092576103ea856103de81890382614325565b83548652948501946001938401939091019061307b565b5034610409576020366003190112610409576001600160a01b036130cb6143ee565b168082526025602052604082205460055411156130f8578160409160209352602583522054604051908152f35b6024906040519063e64d908d60e01b82526004820152fd5b503461040957602080600319360112610405576004358252601d815260408220916040518092808554928381520194835280832092905b82821061315e576103ea856103de81890382614325565b835486529485019460019384019390910190613147565b503461040957806003193601126104095764ffffffffff908160075460281c16906001809381945b6131ae575b602061146a86866154d3565b90919360ff80821691858486851b1610156131e9575081146131d55782019391908161319d565b634e487b7160e01b85526011600452602485fd5b9550506131a2565b503461040957608036600319011261040957600435602480356132126143d8565b906064359184865260189386602092868452613238610695826005604086200154614e94565b8782528684526132516007604084200154421015614d81565b87825286845261326960086040842001544210614dc6565b87825286845260408083206006015490516370a0823160e01b8152336004820152976001600160a01b039091169085898681855afa98891561346c578499613435575b5090859291338552601684526040852054998b8652818552604086206004015411156132d7906148f5565b8a8552835260408420600401548710156132f0906148f5565b60405180948180946323b872dd60e01b82528a30600484019261331293614e22565b03925af1801561342a5761340d575b5060018084018085116133fa57811c84925b8382106133c7575050917fb70003fc4a69addb9afd44dd9b2219fa0d52a26a4393ca85821c0768ef0a60479593918593606096146000146133a15787895281805260408920858a52825261338c60408a20918254614a17565b90555b6040519384528301526040820152a280f35b8789526021825260408920858a5282526133c060408a20918254614a17565b905561338f565b9092508280156133e557806133dd918704614a17565b821c90613333565b50634e487b7160e01b60009081526012600452fd5b634e487b7160e01b895260116004528289fd5b61342390833d8511610856576108478183614325565b5038613321565b6040513d8a823e3d90fd5b8680929a5081949395503d8311613465575b6134518183614325565b810103126108d057905196899290856132ac565b503d613447565b6040513d86823e3d90fd5b50346104095760803660031901126104095736602312156104095760405161349e816142b8565b6084813682116108d0576020926004905b8382106134c0578461146a846153bd565b813581529084019084016134af565b5034610409576020366003190112610409576040906004358152602260205220805460405191613506836109ea8160018501614662565b60405161351a81610a208160028601614662565b61357760405161353181610a208160038801614662565b613569600560048601549501549361355b604051988998895260c060208a015260c0890190614453565b908782036040890152614453565b908582036060870152614453565b91608084015260a08301520390f35b50346104095780600319360112610409576040517f00000000000000000000000000000000000000000000000000000000000000006001600160a01b03168152602090f35b5034610409576040366003190112610409576004356001600160401b0360243581811161139a576136009036906004016145fb565b919061360a61478b565b6005548410156137115783855260209160248352600b604087200190841161193c576136408461363a8354614628565b836147dd565b85601f851160011461369b579161117c9185600080516020615f108339815191529695948991613690575b508560011b906000198760031b1c19161790555b60405193838594855284019161496d565b90508201353861366b565b81875283872090601f198616885b8181106136fa57509161117c939187600080516020615f1083398151915298979694106136e0575b5050600185811b01905561367f565b830135600019600388901b60f8161c1916905538806136d1565b9192866001819286890135815501940192016136a9565b60405163a86ecdd560e01b815260048101859052602490fd5b503461040957608036600319011261040957613745366145d3565b6001600160401b039060443582811161139a5761376690369060040161438e565b6064358381116113965761377e90369060040161438e565b90825185526026602052604085206020840151865260205260ff9384604087205416613b665760075464ffffffffff7f00000000000000000000000000000000000000000000000000000000000000009160281c161015613b54576137e984516020860151906152ab565b15613b42576001600160a01b03918691907f0000000000000000000000000000000000000000000000000000000000000000841690813b1561139a5783916138489160405195868094819363125c7dfb60e11b83523360048401614f09565b03925af180156108dc57613b19575b505061387c91602091604051808095819463b36543a960e01b83523360048401614f09565b03917f0000000000000000000000000000000000000000000000000000000000000000165afa90811561346c578491613ae7575b506138d46040516138c081614267565b838152826020820152426040820152615dd5565b926007549364ffffffffff8560281c169060019586830164ffffffffff8111613ad15764ffffffffff60281b1990911660289190911b64ffffffffff60281b161760075590869073Db6F8a73C48a17D8462762296ef353B5D0c113ea90875b6139bf575b505050505061395264ffffffffff60075460281c16614f2b565b7fd3c3cd829e4e37d5baaf10abace26b24e0046e20500c999380410f807edfcda0606084519260208601519464ffffffffff604051921682526020820152426040820152a38051835260266020526020604084209101518352602052604082209060ff1982541617905580f35b64ffffffffff6139e4826139df868916602088901b60ff60201b16614f42565b61548c565b168952600893846020528060408b205588821615613acb57613a5394602091613a15613a0f85614f2b565b876154a5565b9164ffffffffff60405193613a2985614282565b168d52835260408c2054825282820152604051809681926314d2f97b60e11b83526004830161530a565b0381855af4938415613ac057889486918b91613a81575b5094938401169290811c647fffffffff1690613933565b955050506020843d602011613ab8575b81613a9e60209383614325565b810103126108d0578488647fffffffff8196519150613a6a565b3d9150613a91565b6040513d8b823e3d90fd5b50613938565b634e487b7160e01b600052601160045260246000fd5b90506020813d602011613b11575b81613b0260209383614325565b810103126108d05751386138b0565b3d9150613af5565b8196929611613b2e5760405293816020613857565b634e487b7160e01b82526041600452602482fd5b6040516379fae7af60e01b8152600490fd5b60405163b984588b60e01b8152600490fd5b604051632e13e04560e01b8152600490fd5b5034610409578060031936011261040957604060115460125482519182526020820152f35b5034610409576040366003190112610409576020612148613bbc6143c2565b600435614e94565b50346104095780600319360112610409576013546040516001600160a01b039091168152602090f35b50346104095780600319360112610409576020600554604051908152f35b503461040957606036600319011261040957604435801515810361040557613c3890602435600435614bdc565b60405190602092838301848452825180915260408401948060408360051b870101940192955b828710613c6b5785850386f35b909192938280613c87600193603f198a8203018652885161449f565b9601920196019592919092613c5e565b503461040957602036600319011261040957600435613cb4614a31565b50600554811015613ce457604082613cd59260609452600660205220614935565b613ce26040518092614478565bf35b6024906040519063a86ecdd560e01b82526004820152fd5b5034610409576020806003193601126104055760043582526023815260408220916040518092808554928381520194835280832092905b828210613d4a576103ea856103de81890382614325565b835486529485019460019384019390910190613d33565b50346104095780600319360112610409576014546040516001600160a01b039091168152602090f35b5034610409578060031936011261040957602064ffffffffff60075460281c16604051908152f35b503461040957602036600319011261040957600435613dcf614a50565b50600554811015613ce457604082613df1926103ea9452602460205220614ac7565b60405191829160208352602083019061449f565b503461040957610140366003190112610409576024356001600160401b03811161040557613e3790369060040161438e565b613e3f6143ac565b60a4356001600160a01b038116919082900361139a576101243590811515820361139657606435855260176020526024602060018060a01b03600660408920015416604051928380926370a0823160e01b82528860048301525afa90811561085d5786916141ad575b506064358652601760205260056040872001541161416857613ecb600c546147b7565b9283600c55855260166020526040852054604435670de0b6b3a764000091818381020483148215171561415457604051966001600160401b0361016089019081119089111761414057610160880160405286885260043560208901526040880152606087015202608085015260643560a085015260018060a01b031660c084015260c43560e084015260e43561010084015261010435610120840152151561014083015282526018602052604082208151815560208201516001820155604082015180519060018060401b03821161412c57613fb782613fae6002860154614628565b600286016147dd565b602090601f83116001146140b95791806101409492600a9488926140ae575b50508160011b916000199060031b1c19161760028201555b606084015160038201556080840151600482015560a084015160058201556006810160018060a01b0360c08601511660018060a01b031982541617905560e084015160078201556101008401516008820155610120840151600982015501910151151560ff801983541691161790556064358152601a60205261407760408220600c54906148a7565b600c547f2e8c120bfdd294891f6ac45b1d661997690ad24bb51f51e4d357365f25c190236040518061117c60a435606435836148dc565b015190503880613fd6565b906002840186526020862091865b601f19851681106141145750926101409492600192600a9583601f198116106140fb575b505050811b016002820155613fee565b015160001960f88460031b161c191690553880806140eb565b919260206001819286850151815501940192016140c7565b634e487b7160e01b85526041600452602485fd5b634e487b7160e01b89526041600452602489fd5b634e487b7160e01b88526011600452602488fd5b60405162461bcd60e51b815260206004820152601d60248201527f596f7520646f206e6f74206861766520656e6f75676820746f6b656e730000006044820152606490fd5b90506020813d6020116141d7575b816141c860209383614325565b81010312611a86575138613ea8565b3d91506141bb565b50346104095780600319360112610409576040517f00000000000000000000000000000000000000000000000000000000000000006001600160a01b03168152602090f35b9050346104055781600319360112610405577f00000000000000000000000000000000000000000000000000000000000000006001600160a01b03168152602090f35b606081019081106001600160401b03821117611a4857604052565b604081019081106001600160401b03821117611a4857604052565b60c081019081106001600160401b03821117611a4857604052565b608081019081106001600160401b03821117611a4857604052565b61014081019081106001600160401b03821117611a4857604052565b602081019081106001600160401b03821117611a4857604052565b60a081019081106001600160401b03821117611a4857604052565b601f909101601f19168101906001600160401b03821190821017611a4857604052565b9192916001600160401b038211611a485760405191614371601f8201601f191660200184614325565b8294818452818301116108d0578281602093846000960137010152565b9080601f830112156108d0578160206143a993359101614348565b90565b608435906001600160a01b03821682036108d057565b602435906001600160a01b03821682036108d057565b604435906001600160a01b03821682036108d057565b600435906001600160a01b03821682036108d057565b60c435906001600160a01b03821682036108d057565b60e435906001600160a01b03821682036108d057565b60005b8381106144435750506000910152565b8181015183820152602001614433565b9060209161446c81518092818552858086019101614430565b601f01601f1916010190565b80516001600160a01b03908116835260208083015182169084015260409182015116910152565b9190825181526020906144e96144d76144c5848701516101808087870152850190614453565b60408701518482036040860152614453565b60608601518382036060850152614453565b936144fc60808201516080840190614478565b60a081015160e083015260c081015190610100918284015260e08101519161012092838501528101519383870361014085015284518088528188019180808360051b8b01019701926000905b83821061456b5750505050506143a9949550015190610160818403910152614453565b909192939783806145896001938e601f199082030186528c51614453565b9a019201920190939291614548565b6020908160408183019282815285518094520193019160005b8281106145bf575050505090565b8351855293810193928101926001016145b1565b60409060031901126108d057604051906145ec82614282565b60043582526024356020830152565b9181601f840112156108d0578235916001600160401b0383116108d057602083818601950101116108d057565b90600182811c92168015614658575b602083101461464257565b634e487b7160e01b600052602260045260246000fd5b91607f1691614637565b906000929180549161467383614628565b9182825260019384811690816000146146d55750600114614695575b50505050565b90919394506000526020928360002092846000945b8386106146c157505050500101903880808061468f565b8054858701830152940193859082016146aa565b9294505050602093945060ff191683830152151560051b0101903880808061468f565b906040519161470683614282565b8260449182116108d0576004905b82821061472057505050565b8135815260209182019101614714565b60409060031901126108d0576004359060243590565b805482101561475e5760005260206000200190600090565b634e487b7160e01b600052603260045260246000fd5b6001600160401b038111611a485760051b60200190565b6009546001600160a01b0316330361479f57565b60405163118cdaa760e01b8152336004820152602490fd5b6000198114613ad15760010190565b8181106147d1575050565b600081556001016147c6565b9190601f81116147ec57505050565b614818926000526020600020906020601f840160051c8301931061481a575b601f0160051c01906147c6565b565b909150819061480b565b9061483c602091949394604084526040840190614453565b6001600160a01b03909416910152565b1561485357565b60405162461bcd60e51b815260206004820152602660248201527f55736572206973206e6f74207265676973746572656420696e746f207468652060448201526573797374656d60d01b6064820152608490fd5b8054600160401b811015611a48576148c491600182018155614746565b819291549060031b91821b91600019901b1916179055565b9081526001600160a01b03909116602082015260400190565b156148fc57565b60405162461bcd60e51b81526020600482015260116024820152704e6f7420656e6f75676820546f6b656e7360781b6044820152606490fd5b9060405161494281614267565b82546001600160a01b0390811682526001840154811660208301526002909301549092166040830152565b908060209392818452848401376000828201840152601f01601f1916010190565b9082818152602080910193818360051b82010194846000925b8584106149b8575050505050505090565b90919293949596601f198282030184528735601e19843603018112156108d05783018681019190356001600160401b0381116108d05780360383136108d057614a068892839260019561496d565b9901940194019295949391906149a7565b91908201809211613ad157565b91908203918211613ad157565b60405190614a3e82614267565b60006040838281528260208201520152565b60405190614a5d826142d3565b81600081526101206060918260208201528260408201528280820152614a81614a31565b6080820152600060a0820152600060c0820152600060e0820152826101008201520152565b80511561475e5760200190565b805182101561475e5760209160051b010190565b90604091825190614ad7826142d3565b81938154835280516001614af882614af181848801614662565b0383614325565b602091828601528251614b1281610a208160028901614662565b838601528251614b2981610a208160038901614662565b6060860152614b3a60048501614935565b6080860152600784015460a0860152600884015460c0860152600984015460e0860152600a8401805490614b6d82614774565b93614b7a86519586614325565b82855260009182528082208186015b848410614bba57505050505050610120926109ea8593614bb693610100600b980152518096819301614662565b0152565b858381928a51614bce81610a208189614662565b815201920193019290614b89565b60001993928482019290918311613ad15780830292808404821490151715613ad157614c089083614a17565b93808501948511613ad15784916005549586851015614d1c57861115614d0a575b614c338484614a24565b9060018201809211613ad157614c4882614774565b92604092614c5884519586614325565b808552614c67601f1991614774565b0160005b818110614cf357505083976000965b86811115614c8c575050505050505050565b808415614cd7575b90614cd2916000526024602052614ccc8660002099614cbb614cb5826147b7565b9b614ac7565b614cc5828b614ab3565b5288614ab3565b506147b7565b614c7a565b50614ce28183614a24565b90838201918211613ad15790614c94565b602090614cfe614a50565b82828901015201614c6b565b9150808501858111613ad15791614c29565b50505050509050604051614d2f816142ef565b6000815290565b15614d3d57565b606460405162461bcd60e51b815260206004820152602060248201527f4f6e6c79206d656d62657273206f66207468652064616f2063616e20766f74656044820152fd5b15614d8857565b60405162461bcd60e51b8152602060048201526016602482015275159bdd1a5b99c81a185cc81b9bdd081cdd185c9d195960521b6044820152606490fd5b15614dcd57565b60405162461bcd60e51b8152602060048201526015602482015274159bdd1a5b99c8151a5b59481a185cc8195b991959605a1b6044820152606490fd5b908160209103126108d0575180151581036108d05790565b6001600160a01b03918216815291166020820152604081019190915260600190565b60005b82600052601b60205260406000208054821015614e8b5781614e6891614746565b90549060031b1c8214614e8357614e7e906147b7565b614e47565b505050600190565b50505050600090565b60009160018060a01b03168252602060168152604080842054918385526019908181528286205494865b868110614ecf575050505050505090565b818852838352614ee181868a20614746565b90549060031b1c8614614efc57614ef7906147b7565b614ebe565b5050505050505050600190565b6001600160a01b0390911681526040602082018190526143a992910190614453565b64ffffffffff9081166000190191908211613ad157565b64ffffffffff9182169082160391908211613ad157565b908160209103126108d057516001600160a01b03811681036108d05790565b906002821015614f855752565b634e487b7160e01b600052602160045260246000fd5b9391949092946005549260018401600555815195602097614fc1898501988951906152ab565b15613b4257606087019660ff8851166000198101908111613ad157600581101561475e5754604080516370f7b36160e01b81526004810195909552825160ff9081166024870152838d015181166044870152928101518316606486015298519091166084840152845160a4840152885160c48401523060e48401526101048301526000916001600160a01b03918a8261012481877f000000000000000000000000000000000000000000000000000000000000000088165af19182156152a1578492615282575b508280808b5193633634487360e01b85521696876004850152169283602484015216918260448301523360648301526150c46084830189614f78565b8b8260a48188887f0000000000000000000000000000000000000000000000000000000000000000165af191821561527857908492918692615259575b508a519663431a717560e01b885260048801526024870152826044870152169283606486015233608486015261513a60a4860188614f78565b8a8560c48184877f0000000000000000000000000000000000000000000000000000000000000000165af194851561524d579189828d61520d9997957f38b2d18bb65cc91d7b436014cf44c8298b13bee60cc18d9e8efec26d1df318909d9c9b99979597615210575b509184916006600295948351956151b987614267565b8652808601988952848487019a168a528d835252209151169360018060a01b031994858354161782558360018301915116858254161790550192511690825416179055519551968451938452830190614f78565ba3565b81975091600661523a879460029796943d8c11615246575b6152328183614325565b810190614f59565b989294955050916151a3565b503d615228565b508851903d90823e3d90fd5b6152719192508d803d10615246576152328183614325565b9038615101565b8a513d87823e3d90fd5b61529a9192508b3d8d11615246576152328183614325565b9038615088565b89513d86823e3d90fd5b90600080516020615f30833981519152808080858196099380098180828187620292fc090894620292f809096001089080828111156152f7575b506000916152f291614a24565b081590565b9050828101809111613ad15760006152e5565b6040810192916000915b6002831061532157505050565b600190825181526020809101920192019190615314565b602061535891604051809381926314d2f97b60e11b83526004830161530a565b038173Db6F8a73C48a17D8462762296ef353B5D0c113ea5af49081156153b157600091615383575090565b906020823d82116153a9575b8161539c60209383614325565b8101031261040957505190565b3d915061538f565b6040513d6000823e3d90fd5b60405163248f667760e01b81529060049060008284015b83821061540e5750505050602081608481738255C396fED4f733102A32d759A2Fc245890BE985af49081156153b157600091615383575090565b6001908351815260208091019301910190916153d4565b604051630926f44b60e31b815290600090600483015b600583106154755750505060208160a48173dAfb17eCdc446C97a6878D1a54D0bA73098b48BB5af49081156153b157600091615383575090565b60019082518152602080910192019201919061543b565b91909164ffffffffff80809416911601918211613ad157565b6143a991906139df9060ff81169060201b60ff60201b16614f42565b60ff60019116019060ff8211613ad157565b919060ff92838216916020908184116157f75764ffffffffff918284169182156157e65761550188916154c1565b1661553861550e82614774565b9560409261551e84519889614325565b80885261552d601f1991614774565b013685890137614f2b565b9060019485808416156000146157c3575080831694818611613ad157869560005260088552826000205461556b89614aa6565b52999592995b6000935b615590575b5050505050505061558c929350614ab3565b5190565b86849a9998979a16888110156157b857858c881661567f576155ea916155c18651916155bb83614282565b8b614ab3565b5181526155cd87615809565b828201528551809381926314d2f97b60e11b83526004830161530a565b038173Db6F8a73C48a17D8462762296ef353B5D0c113ea5af490811561567457600091615647575b509986647fffffffff829d8a9b9c9d615637849c866156308c6154c1565b1690614ab3565b525b821c16950116939a96615575565b908682813d831161566d575b61565d8183614325565b8101031261040957505186615612565b503d615653565b84513d6000823e3d90fd5b5082828c61568c886154c1565b161c1690647fffffffff8d891c168092116000146156e757509986647fffffffff829d856156c6849c9d9e9f6156c18b6154c1565b6154a5565b166000526008895286600020546156e18d866156308c6154c1565b52615639565b61574591508690846157028f6156fc90614f2b565b896154a5565b166000526008825261572786600020549187519261571f84614282565b83528b614ab3565b51828201528551809381926314d2f97b60e11b83526004830161530a565b038173Db6F8a73C48a17D8462762296ef353B5D0c113ea5af49081156156745760009161578b575b509986647fffffffff829d8a9b9c9d6156e1849c866156308c6154c1565b908682813d83116157b1575b6157a18183614325565b810103126104095750518661576d565b503d615797565b50869798995061557a565b94600080516020615f508339815191526157dc89614aa6565b5299959299615571565b9450505050506143a9919250615809565b604051633e104c7760e01b8152600490fd5b60ff168015615dc25760018114615d9d5760028114615d785760038114615d535760048114615d2e5760058114615d095760068114615ce45760078114615cbf5760088114615c9a5760098114615c7557600a8114615c5057600b8114615c2b57600c8114615c0657600d8114615be157600e8114615bbc57600f8114615b975760108114615b725760118114615b4d5760128114615b285760138114615b035760148114615ade5760158114615ab95760168114615a945760178114615a6f5760188114615a4a5760198114615a2557601a8114615a0057601b81146159db57601c81146159b657601d811461599157601e811461596c57601f811461594757602014615923576040516310a2ea0560e21b8152600490fd5b7f1d90601a0c76d2f39824f6dc198fb3b48cbd0231516c8f6208e56ea741c341f990565b507f216b9fa3ac3724cf1ec6caf5a66dd85cae3aee727e00d2a0a59f273df3401f1090565b507f2b59c2651b412c029efa38f835ac1b1b5bdaf89dcb2e4bc9219e7d77c65e776a90565b507f14b46e659dc4072fc64a18d44911c4a303b45f1296c3cb7dec77f269bee9b5df90565b507f0845dd838ca63b2f68775aac8513bd692d26f511698206f3c6ce2b4100dd8d8f90565b507f132e4ff3e4ba890f1610efd4d2f69700b825514d557b82663878a56e2acef41c90565b507f24cb019b59431c232413f66b041923214f7a8a7489caa05b66860f1c3c76d3b190565b507f1b6367322bac9f24889900d310e2feaa0021516fac77470aea078e89335d3fcf90565b507f19b336a1e0a933e2a8f97d97322dcee843a2d9a2401bece52a3a25ddd5bb6bc990565b507f1d71ada9e49baeb4a2cf26be37d3bc680554995ef6706105e93978ba71cacf9490565b507f2560496c1138c827f1efb407d0cdb9d6ec9539b0957dfb67de2776e6026d630f90565b507f2ce2c1fb109ad6574570826774ecfca3e04866bb5a3963962b873646db6641f390565b507f1713f3e3dc5e2393bd31ccc0cdd8601bdee3198cf34d566bb60cfab13e5a087390565b507f2c849a73ab21c9e88e1d711f221863e2a94eb58f3eb42dde575301451f3ec5c890565b507f1874217e8e1dbc51c571a2db1103bf47c3e66a59305ca48bbcee6ad1c8cc575190565b507f2b8342160822355808db759147a7d6f61de451bd5bb88f9db2eb406ea68b813890565b507f199cd1f5b757c285023767abbe9bbb318da4e1fd375b5a001b54a0f3901ea7d390565b507f128fb9ad5b2d8e694bec0888ff95609c15b2a96ae80a34946c953dc503e46fb690565b507f2ec047dd616221873c234f36461080c3e760644bb519ebdb49eb9645215e0edc90565b507f2582b5cdefe032d75373f0ede9171406137e93e7d44405a0b0a409c1c739138090565b507f1f336d6d45d293180c75964e99a7599d44cac2ad447c202c3e1973b0322cf99090565b507f05e0136534f74776d69646bd0bd94519e63af45734405f479382d8400514c1a690565b507f10f7b76489e9c36644736c33c600d1bcedd465fd0aff3027e67b02e13875272d90565b507f1e73f08f6e5e4bb9c2096cc4587526ebfd033c222f4a27e97119c867c36a0d3a90565b507f1ea63a974336db6c0423e719d3f0e11494266237dda3a40de3cb76104436635990565b507f0690bfb582c7502ff6d15d519740ecd73d652b7a14dc82bfd250613ee8e0407690565b507f30553f8216db90854953edd47602897f897104d5b0d65a5ce000981c51da32e090565b507f11dc55d21b17daf8e60253c2a43d519039ba968733cf7c9d5df6155939e1a6d890565b507f08e4b5d410c8de929132c214ea600b5f252fa14aabb97ea67cda5bb4e0ebeec890565b507f04265868d2e705f48d3ae49f7749e67a587dafdb569c1d7334675496046eaad690565b507f2a06fb0b739b402c34dc752d8417b9cd67b7f7cabe4b06b5d995053791fcede490565b507f06928e817d2804a3713efd102bae900c9ab3e8e0b0c6c20f8613bd3b0423a89190565b50600080516020615f5083398151915290565b6143a9906040805191615de7836142b8565b608036843780515183526020815101516020840152602081015182840152015160608201526153bd565b60206143a9926040615eb9815194615e288661430a565b60a0368737805151865284815101518587015282815101518387015260608151015160608701526080815101516080870152610120835191615e698361430a565b60a036843760a081510151835260c0815101518784015260e081510151858401526101008151015160608401525101516080820152615eb2835196615ead886142b8565b615425565b8652615425565b83850152815190840152015160608201526153bd56fe7532e9985b123ef8bda3bc40b1a4296f34238889a58a41de23df560b8bfb9bc6526a4ede5e3a32e00a9764bde0eecbb0544853b17bebb12f4a8500ccd51372152cd30b9efd64638f847bef681e87dfbb567e261d02660c8166a92f33729ab33e30644e72e131a029b85045b68181585d2833e84879b9709143e1f593f00000010ef71f46e11a513c599eed9dd03576c33439bcfb1cee155316f90541e41649ba1c81d7053f5e6f875e0d7b584d3354071899b7dc927e6d7b48b58caa90cf3de88be0079c531659141344cd1fd0a4f28419497f9722a3daafe3b4186f6b6457e0a2646970667358221220ea5b01e6cc4cd1d71d4c324a3d9dd82963e8e8c5682da3d6e01582428c01413464736f6c63430008140033",
  "deployedBytecode": "0x608080604052600436101561001357600080fd5b600090813560e01c908163055575eb1461422457508063079410db146141df5780630e1b191f14613e055780631096c30e14613db2578063122db15314613d8a57806313fb893214613d615780631a56763614613cfc5780631a8cbcaa14613c975780631b6ef3c514613c0b5780632b78657114613bed5780632b7ac3f314613bc45780632dba654714613b9d57806331e766a514613b785780633364120a1461372a5780633364c4c8146135cb578063343393b5146135865780633bd8e51e146134cf5780633dfb88b2146134775780633e33c05e146131f1578063423f3e191461317557806345404bbd1461311057806346e47f9a146130a95780634aaa315d146130445780634c58b7a914612cd55780634d5da86b14612419578063553181ec146123fb57806356a58ebf1461233557806356f28b0a1461230357806358bfc379146121f65780635bb93995146121c557806362a361bb1461219757806362b31f1e1461215257806364390ff11461212e57806364e0ece114612012578063652c76e414611fd4578063683f3dc314611fb85780636b4575e214611ee95780636cd84de714611eb75780636d85003314611e85578063715018a614611e3957806372524bf314611e0d578063756b425914611cce5780637d0a81c814611c8c5780637eb3282614611c635780637ee0a23014611b4f5780638a2a3dfb14611ab35780638da5cb5b14611a8a578063941a35de1461159e57806394316829146114ae5780639c4ae5e1146114815780639cfced9714611421578063a3f9ac62146113bc578063a78d80fc1461139e578063a843e07614610f14578063aab4a67014610ecf578063aab6568614610e6a578063abe7095114610e31578063ac2f007414610de2578063ac98e5df14610da0578063b686872014610d70578063b87802c814610d46578063ba8f07a314610d14578063bea140b314610c14578063bee5eabe14610be2578063bff1f9e114610bc4578063bff3375e14610b5f578063c228995d14610b2d578063c8cf9ab214610af4578063c9354bb514610ad6578063cc6e4a3814610aa4578063cd585b37146109b3578063cea3e53014610995578063d7a71b9a14610963578063df82635a14610928578063eae24c7714610654578063edbfe83f14610529578063f2fde38b146104b1578063f55082ce1461044c578063f9d5b5de1461040c5763fcde7bd91461039157600080fd5b3461040957602080600319360112610405576004358252601f815260408220916040518092808554928381520194835280832092905b8282106103ee576103ea856103de81890382614325565b60405191829182614598565b0390f35b8354865294850194600193840193909101906103c7565b5080fd5b80fd5b50346104095761041b36614730565b91908152601c6020526040812090815483101561040957602061043e8484614746565b90546040519160031b1c8152f35b503461040957602080600319360112610405576004358252601c815260408220916040518092808554928381520194835280832092905b82821061049a576103ea856103de81890382614325565b835486529485019460019384019390910190610483565b5034610409576020366003190112610409576104cb6143ee565b6104d361478b565b6001600160a01b0390811690811561051057600980546001600160a01b03198116841790915516600080516020615f90833981519152600080a380f35b604051631e4fbdf760e01b815260048101849052602490fd5b50346104095760403660031901126104095736602312156104095761054d366146f8565b604051610559816142ef565b604051610565816142d3565b6101409182368337526040519061057b82614282565b838252836020809301528160405193610593856142d3565b8236863780518552015182840152604051906105ae82614282565b7f171e826ad4a870fd925e0bf0e87884e70e080879c2205ef10114f28a3b6f6dd78252828201917f2bd407d897fbbca9f88adfd2d15252e69de8c1564eb4d3d27162e259172f1a1d835260405194610605866142ef565b85526106118186615e11565b6040519551969094865b600a831061063f575050506101a09550519084015251610160830152610180820152f35b81806001928b5181520199019201919761061b565b503461040957606036600319011261040957602435906004356106756143d8565b92818352601860209181835261069a610695876005604089200154614e94565b614d36565b8385528183526106b36007604087200154421015614d81565b8385528183526106cb60086040872001544210614dc6565b838552818352600180604087200154036108e75783855281835260408086206006015490516370a0823160e01b8152336004820152926001600160a01b03909116908484602481855afa9384156108dc5787946108a8575b5033875260168552610749604088205494878952828752600460408a20015411156148f5565b6107538685614e44565b86885281865260ff600a60408a20015416610868575b509684918798876107a09899528352600460408a20015491896040518099819582946323b872dd60e01b8452309060048501614e22565b03925af192831561085d577f24930ecca7f60d4736cd965cb5522694ea4b32308405d3f88fea2f59eff63caa94604094610830575b50600182036107fd57858752601c81526107f1838589206148a7565b8351928352820152a280f35b6002820361081d57858752601d8152610818838589206148a7565b6107f1565b858752601e8152610818838589206148a7565b61084f90823d8411610856575b6108478183614325565b810190614e0a565b50386107d5565b503d61083d565b6040513d88823e3d90fd5b6108725738610769565b60405162461bcd60e51b815260048101869052600e60248201526d155cd95c881a185cc8159bdd195960921b6044820152606490fd5b9093508481813d83116108d5575b6108c08183614325565b810103126108d057519238610723565b600080fd5b503d6108b6565b6040513d89823e3d90fd5b60405162461bcd60e51b8152600481018490526019602482015278566f74696e672054797065206973206e6f74207965732f6e6f60381b6044820152606490fd5b503461040957806003193601126104095760206040517f00000000000000000000000000000000000000000000000000000000000000008152f35b50346104095760ff604060209261097936614730565b9082526026855282822090825284522054166040519015158152f35b50346104095780600319360112610409576020600e54604051908152f35b50346104095760203660031901126104095760409060043581526015602052208054604051916109f1836109ea8160018501614662565b0384614325565b610a9a60405191610a09836109ea8160028501614662565b610a8c604051610a2781610a208160038701614662565b0382614325565b610a7e60405193610a4685610a3f8160048501614662565b0386614325565b600560018060a01b039101541695610a70604051998a998a5260c060208b015260c08a0190614453565b9088820360408a0152614453565b908682036060880152614453565b908482036080860152614453565b9060a08301520390f35b503461040957610ab336614730565b91908152601d6020526040812090815483101561040957602061043e8484614746565b50346104095780600319360112610409576020600d54604051908152f35b5034610409576020366003190112610409576020906040906001600160a01b03610b1c6143ee565b168152602583522054604051908152f35b503461040957610b3c36614730565b91908152601b6020526040812090815483101561040957602061043e8484614746565b503461040957602080600319360112610405576004358252601b815260408220916040518092808554928381520194835280832092905b828210610bad576103ea856103de81890382614325565b835486529485019460019384019390910190610b96565b50346104095780600319360112610409576020600b54604051908152f35b503461040957610bf136614730565b91908152601a6020526040812090815483101561040957602061043e8484614746565b50346104095760603660031901126104095736602312156104095760405190610c3c82614267565b606482368211610d10576004905b828210610d005750506040516304b98e1d60e31b81529283908390600483015b60038310610ce6575050506020918173__$fa059fb1da6d850ca47ea49359bfe89f78$__5af4908115610cda5790610ca8575b602090604051908152f35b506020813d8211610cd2575b81610cc160209383614325565b810103126108d05760209051610c9d565b3d9150610cb4565b604051903d90823e3d90fd5b815181528693506001929092019160209182019101610c6a565b8135815260209182019101610c4a565b8280fd5b503461040957610d2336614730565b9190815260236020526040812090815483101561040957602061043e8484614746565b50346104095760203660031901126104095760043560058110156104055760209054604051908152f35b5034610409578060031936011261040957604060075481519064ffffffffff90818116835260281c166020820152f35b5034610409578060031936011261040957608060105460ff604051918181168352818160081c166020840152818160101c16604084015260181c166060820152f35b5034610409576020366003190112610409576040606091600435815260066020522060018060a01b03908181541691600281600184015416920154169060405192835260208301526040820152f35b5034610409576020366003190112610409576020906040906001600160a01b03610e596143ee565b168152601683522054604051908152f35b503461040957602080600319360112610405576004358252601e815260408220916040518092808554928381520194835280832092905b828210610eb8576103ea856103de81890382614325565b835486529485019460019384019390910190610ea1565b50346104095780600319360112610409576040517f00000000000000000000000000000000000000000000000000000000000000006001600160a01b03168152602090f35b50346104095760a0366003190112610409576001600160401b039060043582811161040557610f4790369060040161438e565b602435838111610d1057610f5f90369060040161438e565b9060443584811161139a57610f7890369060040161438e565b9060643585811161139657610f9190369060040161438e565b610f996143ac565b92610fa5600b546147b7565b9182600b5560405191610fb78361429d565b83835260208084018681526040808601998a5260608601938452608086019485526001600160a01b03891660a08701818152978c5260159093528a20945185555180519198918b81116113825780600187019261101e826110188654614628565b866147dd565b6020908d601f841160011461131e5792611313575b50508160011b916000199060031b1c19161790555b5180518a811161129057806002860192611066826110188654614628565b602090601f83116001146112af578c926112a4575b50508160011b916000199060031b1c19161790555b51805160038401918a82116112905781906110af826110188654614628565b602090601f831160011461122c578b92611221575b50508160011b916000199060031b1c19161790555b5196875190811161120d576110fe816110f56004850154614628565b600485016147dd565b6020601f821160011461118d57908060059392899a600080516020615f70833981519152999a92611182575b50508160011b916000199060031b1c19161760048201555b019060018060a01b0390511660018060a01b0319825416179055600b54938552601660205283604086205561117c60405192839283614824565b0390a280f35b01519050388061112a565b6004830188526020882098885b601f19841681106111f5575091600080516020615f708339815191529798996001926005959483601f198116106111dc575b505050811b016004820155611142565b015160001960f88460031b161c191690553880806111cc565b828201518b556001909a01996020928301920161119a565b634e487b7160e01b87526041600452602487fd5b0151905038806110c4565b848c5260208c209250601f1984168c5b818110611278575090846001959493921061125f575b505050811b0190556110d9565b015160001960f88460031b161c19169055388080611252565b9293602060018192878601518155019501930161123c565b634e487b7160e01b8a52604160045260248afd5b01519050388061107b565b848d5260208d209250601f1984168d5b8181106112fb57509084600195949392106112e2575b505050811b019055611090565b015160001960f88460031b161c191690553880806112d5565b929360206001819287860151815501950193016112bf565b015190503880611033565b858152602081209350601f198516905b81811061136a5750908460019594939210611351575b505050811b019055611048565b015160001960f88460031b161c19169055388080611344565b9293602060018192878601518155019501930161132e565b634e487b7160e01b8b52604160045260248bfd5b8480fd5b8380fd5b50346104095780600319360112610409576020600c54604051908152f35b503461040957602080600319360112610405576004358252601a815260408220916040518092808554928381520194835280832092905b82821061140a576103ea856103de81890382614325565b8354865294850194600193840193909101906113f3565b50346104095760a0366003190112610409573660231215610409576040516114488161430a565b60a4813682116108d0576020926004905b838210611472578461146a84615425565b604051908152f35b81358152908401908401611459565b503461040957604060209161149536614730565b9082526021845282822090825283522054604051908152f35b503461040957602036600319011261040957604090600435815260176020522080546103ea600183015492600760ff604051926114f9846114f28160028501614662565b0385614325565b6040519361150e85610a3f8160038601614662565b61156c60048301549561155e600585015493611540600687015496611539604051809b819301614662565b0389614325565b6040519b8c9b8c5260208c01526101208060408d01528b0190614453565b9089820360608b0152614453565b94608088015260a087015260018060a01b03811660c087015260a01c16151560e0850152838203610100850152614453565b503461040957610100366003190112610409576004356001600160401b038111610405576115d090369060040161438e565b906024356001600160401b038111610405576115f090369060040161438e565b916115f96143ac565b60a4359081151582036108d05761160e614404565b9160e4356001600160401b038111611a865761162e90369060040161438e565b611639600d546147b7565b600d8190556001600160a01b0385168752601660205260408720549390929061166385151561484c565b60443598670de0b6b3a7640000908a8281020482148b151715611a7257606435908183810204831482151715611a5e576040519b6001600160401b036101208e01908111908e1117611a4857839160608e61012081016040528a81528b60208201528d604082015201520260808c01520260a08a015260018060a01b031660c0890152151560e088015261010087015284526017602052604084208551815560208601516001820155604086015180519060018060401b03821161120d57819061173d826117346002870154614628565b600287016147dd565b602090601f83116001146119d95788926119ce575b50508160011b916000199060031b1c19161760028201555b60608601518051906001600160401b03821161120d5761179a826117916003860154614628565b600386016147dd565b602090601f831160011461195b57918061010094926007948a92611950575b50508160011b916000199060031b1c19161760038201555b6080880151600482015560a088015160058201556006810160018060a01b0360c08a01511681549060ff60a01b60e08c0151151560a01b169160018060a81b031916171790550195015194855160018060401b03811161193c5761183f816118398454614628565b846147dd565b6020601f82116001146118c85781908798600080516020615ef08339815191529798926118bd575b50508160011b916000199060031b1c19161790555b600d548552601960205261189381604087206148a7565b8452601f6020526118aa60408520600d54906148a7565b600d549261117c60405192839283614824565b015190503880611867565b8287526020872097601f198316885b818110611924575091600080516020615ef08339815191529798999184600195941061190b575b505050811b01905561187c565b015160001960f88460031b161c191690553880806118fe565b838301518b556001909a0199602093840193016118d7565b634e487b7160e01b86526041600452602486fd5b0151905038806117b9565b906003840188526020882091885b601f19851681106119b6575092610100949260019260079583601f1981161061199d575b505050811b0160038201556117d1565b015160001960f88460031b161c1916905538808061198d565b91926020600181928685015181550194019201611969565b015190503880611752565b9250600284018852602088209088935b601f1984168510611a2d576001945083601f19811610611a14575b505050811b01600282015561176a565b015160001960f88460031b161c19169055388080611a04565b818101518355602094850194600190930192909101906119e9565b634e487b7160e01b600052604160045260246000fd5b634e487b7160e01b8b52601160045260248bfd5b634e487b7160e01b8a52601160045260248afd5b8580fd5b50346104095780600319360112610409576009546040516001600160a01b039091168152602090f35b5034610409573660031901610180811261040557610140136104095760405190611adc826142ef565b3660231215610409575060405190611af3826142d3565b81610144923684116108d0576004905b848210611b3f57505081526040366101431901126108d05760209161146a9160405191611b2f83614282565b3582526101643584830152615e11565b8135815260209182019101611b03565b503461040957606036600319011261040957600435611b6c6143c2565b6001600160a01b0380611b7d6143d8565b16845260209060168252604085205484865260178352600160408720015403611c1257821684526016815260408420547f91d8f88e2103e9fbf7b05234db8db9719fbb001942620d75ccb0fe36cc3d4e7e9291601f90611bde83151561484c565b85875260198152611bf283604089206148a7565b82875252611c0384604087206148a7565b61117c604051928392836148dc565b60405162461bcd60e51b815260048101839052602360248201527f4f6e6c792061646d696e2063616e2061646420757365727320746f207468652060448201526264616f60e81b6064820152608490fd5b5034610409578060031936011261040957600a546040516001600160a01b039091168152602090f35b503461040957608036600319011261040957602061146a604051611caf81614267565b611cb8366145d3565b8152604435838201526064356040820152615dd5565b503461040957604036600319011261040957600435611ceb6143c2565b81835260206017815260ff600660408620015460a01c16611dd8578284526017815260408085206006015490516370a0823160e01b81526001600160a01b038085166004830181905291949392839186916024918391165afa93841561085d578694611da7575b50611d8e7fdc463d5cc5ec176a75297fc551efa8870a347842d12a5f0a37131f0c661b6e789486885260178452600460408920015411156148f5565b855260168152601f604086205491611bde83151561484c565b93508184813d8311611dd1575b611dbe8183614325565b810103126108d057925192611d8e611d52565b503d611db4565b6064906040519062461bcd60e51b82526004820152600e60248201526d44616f206973205072697661746560901b6044820152fd5b5034610409576040602091611e2136614730565b90825283805282822090825283522054604051908152f35b5034610409578060031936011261040957611e5261478b565b600980546001600160a01b031981169091556000906001600160a01b0316600080516020615f908339815191528280a380f35b503461040957611e9436614730565b9190815260196020526040812090815483101561040957602061043e8484614746565b503461040957611ec636614730565b91908152601e6020526040812090815483101561040957602061043e8484614746565b5034610409576101403660031901126104095760803660231901126108d057604051611f14816142b8565b60243560ff811681036108d057815260443560ff811681036108d057602082015260643560ff811681036108d057604082015260843560ff811681036108d057606082015260403660a31901126108d057604051611f7181614282565b60a435815260c4356020820152611f8661441a565b61010435906001600160a01b03821682036108d05761012435926002841015611a8657611fb594600435614f9b565b80f35b50346104095780600319360112610409576020604051600a8152f35b5034610409578060031936011261040957602060405160ff7f0000000000000000000000000000000000000000000000000000000000000000168152f35b50346104095736600319016101008112610405576080136108d057604051612039816142b8565b60043560ff811681036108d05781526024359060ff821682036108d057602081019182526044359160ff831683036108d057604082019283526064359060ff821682036108d0576060830191825260403660831901126108d057604051906120a082614282565b6084358252602082019260a43584526120b7614404565b9560ff6120c261441a565b966120cb61478b565b511663ff00000062ff000061ff00601054965160081b16935160101b16935160181b169363ffffffff191617171717601055516011555160125560018060a01b03908160018060a01b031993168360135416176013551690601454161760145580f35b503461040957602061214861214236614730565b90614e44565b6040519015158152f35b50346104095780600319360112610409576040517f00000000000000000000000000000000000000000000000000000000000000006001600160a01b03168152602090f35b503461040957604036600319011261040957366023121561040957602061146a6121c0366146f8565b615338565b503461040957602061146a6121d936614730565b604051916121e683614282565b6040368437825283820152615338565b50346104095760209081600319360112610409576004356001600160401b038111610405573660238201121561040557806004013561223481614774565b916122426040519384614325565b8183528483016024819360051b83010191368311611a865791869394916024879401905b8282106122f157505050604051838101809251909590845b8181106122d8575050506122a0816122b194959603601f198101835282614325565b604051928392839251928391614430565b8101039060025afa15610cda57600080516020615f30833981519152905106604051908152f35b825188529686019689968996509092019160010161227e565b81358152879450908501908501612266565b50346104095761231236614730565b91908152601f6020526040812090815483101561040957602061043e8484614746565b5034610409576020366003190112610409576040906004358152601860205220805460018201549160405161237181610a208160028601614662565b6003820154916004810154600582015460018060a01b036006840154166007840154916008850154936123c960ff600a600989015498015416976040519b8c9b8c5260208c01526101608060408d01528b0190614453565b9760608a0152608089015260a088015260c087015260e086015261010085015261012084015215156101408301520390f35b50346104095780600319360112610409576020600f54604051908152f35b50346104095760a0366003190112610409576004356001600160401b0381116104055761244a9036906004016145fb565b906001600160401b0360243511610d1057366023602435011215610d10576001600160401b036004602435013511610d105736602480356004013560051b8135010111610d10576044356001600160401b03811161139a576124b09036906004016145fb565b919060026084351015611396576124c561478b565b60055460135460145460405192959261253e9290916001600160a01b0390811691166124f0836142b8565b60ff6010548181168552818160081c166020860152818160101c16604086015260181c16606084015260405161252581614282565b6011548152601254602082015260843593606435614f9b565b838652600660205261255260408720614935565b9260018060a01b03845116875260256020528460408820556040519560208088015261259e876125906040820160243560040135602480350161498e565b03601f198101895288614325565b6125aa60643542614a17565b96604051906125b8826142d3565b8782526125c6368486614348565b602083015260408201526125db368587614348565b60608201528560808201524260a08201528760c08201526024356004013560e082015261260d60243560040135614774565b61261a6040519182614325565b602480356004810135835201602082015b602480356004013560051b813501018210612ca2575050610100820152604051612654816142ef565b8981526101208201528689526024602052604089209080518255602081015180519060018060401b038211612b2057819061269f826126966001880154614628565b600188016147dd565b602090601f8311600114612c33578d92612c28575b50508160011b916000199060031b1c19161760018301555b60408101518051906001600160401b038211612b205781906126fe826126f56002880154614628565b600288016147dd565b602090601f8311600114612bb9578d92612bae575b50508160011b916000199060031b1c19161760028301555b60608101518051906001600160401b038211612b2057819061275d826127546003880154614628565b600388016147dd565b602090601f8311600114612b3f578d92612b34575b50508160011b916000199060031b1c19161760038301555b608081015180516004840180546001600160a01b03199081166001600160a01b039384161790915560208301516005860180548316918416919091179055604090920151600685018054909316911617905560a0810151600783015560c0810151600883015560e08101516009830155610100810151805190600160401b8211612b2057600a84015482600a860155808310612aa5575b50602001600a84018c5260208c208c915b8383106129b0575050505061012001518051906001600160401b0382116113825761286d82612864600b860154614628565b600b86016147dd565b6020908b601f84116001146129245793600b846128dd95600080516020615ed08339815191529c9b99956129049b99956128f69992612919575b50508160011b916000199060031b1c1916179101555b6128ca6040518099614478565b610100606089015261010088019161496d565b858103608087015260243560040135602480350161498e565b9184830360a086015261496d565b934260c083015260e08201528033940390a380f35b0151905038806128a7565b5090600b84018c5260208c20918c5b601f1985168110612998575093600b600185600080516020615ed08339815191529c9b99956129049b99956128f6996128dd99601f1981161061297f575b505050811b019101556128bd565b015160001960f88460031b161c19169055388080612971565b91926020600181928685015181550194019201612933565b80518051906001600160401b038211612a90578f906129d9836129d38754614628565b876147dd565b602091601f8411600114612a2357928060209360019693879692612a18575b5050600019600383901b1c191690841b1785555b01920192019190612832565b0151905038806129f8565b919085835260208320925b601f1985168110612a78575083602093600196938796938794601f19811610612a5f575b505050811b018555612a0c565b015160001960f88460031b161c19169055388080612a52565b91926020600181928685015181550194019201612a2e565b50634e487b7160e01b8f52604160045260248ffd5b600a85018d5260208d20908382018e5b8284018210612ac657505050612821565b90600191612ad48254614628565b80612ae3575b5050018e612ab5565b601f81118414612afb575050600081555b8f38612ada565b828252612b16601f60208420920160051c82018583016147c6565b6000835555612af4565b634e487b7160e01b8c52604160045260248cfd5b015190503880612772565b9250600385018d5260208d20908d935b601f1984168510612b93576001945083601f19811610612b7a575b505050811b01600383015561278a565b015160001960f88460031b161c19169055388080612b6a565b81810151835560209485019460019093019290910190612b4f565b015190503880612713565b9250600285018d5260208d20908d935b601f1984168510612c0d576001945083601f19811610612bf4575b505050811b01600283015561272b565b015160001960f88460031b161c19169055388080612be4565b81810151835560209485019460019093019290910190612bc9565b0151905038806126b4565b9250600185018d5260208d20908d935b601f1984168510612c87576001945083601f19811610612c6e575b505050811b0160018301556126cc565b015160001960f88460031b161c19169055388080612c5e565b81810151835560209485019460019093019290910190612c43565b6001600160401b03823511612cd15760208091612cc636602486358135010161438e565b81520191019061262b565b8b80fd5b5034610409576080366003190112610409576001600160401b03600435818111610d1057612d0790369060040161438e565b9060243581811161139a57612d2090369060040161438e565b60443592606435838111611a8657612d3c90369060040161438e565b90612d473386614e94565b50612d53600f546147b7565b9182600f553387526020946016865260408820549260405195612d758761429d565b85875287870191825260408701908152606087019384526080870194855260a08701958987528a526022885260408a20965187556001918288019051805190858211613030578c8291612dcc836129d38754614628565b8c91601f8411600114612fcf5792612fc4575b5050600019600383901b1c191690841b1790555b5180516002880191848211612b20578190612e12826110188654614628565b8a908d601f8411600114612f635792612f58575b5050600019600383901b1c191690831b1790555b600386019251805192831161129057612e57836110188654614628565b87908a601f8511600114612eec579360239998979593819382936005999794612ee1575b50501b916000199060031b1c19161790555b5160048401555191015582845252612eab60408320600f54906148a7565b7f1fde1754c4885768c21d9296fa19a786545751f6219e5505a782dfdf86fda8dd61117c600f54926040519182913390836148dc565b015192503880612e7b565b50848b52888b209293929190601f1984168c5b818110612f435750916005979593918560239c9b9a98969410612f2a575b505050811b019055612e8d565b015160001960f88460031b161c19169055388080612f1d565b82840151855593860193928b01928b01612eff565b015190503880612e26565b8581528c8120879550929190601f198516908e5b828210612fad5750508411612f94575b505050811b019055612e3a565b015160001960f88460031b161c19169055388080612f87565b83850151865589979095019493840193018e612f77565b015190503880612ddf565b8581528d8120889550929190601f198516908f5b8282106130195750508411613000575b505050811b019055612df3565b015160001960f88460031b161c19169055388080612ff3565b8385015186558a979095019493840193018f612fe3565b634e487b7160e01b8d52604160045260248dfd5b5034610409576020806003193601126104055760043582526019815260408220916040518092808554928381520194835280832092905b828210613092576103ea856103de81890382614325565b83548652948501946001938401939091019061307b565b5034610409576020366003190112610409576001600160a01b036130cb6143ee565b168082526025602052604082205460055411156130f8578160409160209352602583522054604051908152f35b6024906040519063e64d908d60e01b82526004820152fd5b503461040957602080600319360112610405576004358252601d815260408220916040518092808554928381520194835280832092905b82821061315e576103ea856103de81890382614325565b835486529485019460019384019390910190613147565b503461040957806003193601126104095764ffffffffff908160075460281c16906001809381945b6131ae575b602061146a86866154d3565b90919360ff80821691858486851b1610156131e9575081146131d55782019391908161319d565b634e487b7160e01b85526011600452602485fd5b9550506131a2565b503461040957608036600319011261040957600435602480356132126143d8565b906064359184865260189386602092868452613238610695826005604086200154614e94565b8782528684526132516007604084200154421015614d81565b87825286845261326960086040842001544210614dc6565b87825286845260408083206006015490516370a0823160e01b8152336004820152976001600160a01b039091169085898681855afa98891561346c578499613435575b5090859291338552601684526040852054998b8652818552604086206004015411156132d7906148f5565b8a8552835260408420600401548710156132f0906148f5565b60405180948180946323b872dd60e01b82528a30600484019261331293614e22565b03925af1801561342a5761340d575b5060018084018085116133fa57811c84925b8382106133c7575050917fb70003fc4a69addb9afd44dd9b2219fa0d52a26a4393ca85821c0768ef0a60479593918593606096146000146133a15787895281805260408920858a52825261338c60408a20918254614a17565b90555b6040519384528301526040820152a280f35b8789526021825260408920858a5282526133c060408a20918254614a17565b905561338f565b9092508280156133e557806133dd918704614a17565b821c90613333565b50634e487b7160e01b60009081526012600452fd5b634e487b7160e01b895260116004528289fd5b61342390833d8511610856576108478183614325565b5038613321565b6040513d8a823e3d90fd5b8680929a5081949395503d8311613465575b6134518183614325565b810103126108d057905196899290856132ac565b503d613447565b6040513d86823e3d90fd5b50346104095760803660031901126104095736602312156104095760405161349e816142b8565b6084813682116108d0576020926004905b8382106134c0578461146a846153bd565b813581529084019084016134af565b5034610409576020366003190112610409576040906004358152602260205220805460405191613506836109ea8160018501614662565b60405161351a81610a208160028601614662565b61357760405161353181610a208160038801614662565b613569600560048601549501549361355b604051988998895260c060208a015260c0890190614453565b908782036040890152614453565b908582036060870152614453565b91608084015260a08301520390f35b50346104095780600319360112610409576040517f00000000000000000000000000000000000000000000000000000000000000006001600160a01b03168152602090f35b5034610409576040366003190112610409576004356001600160401b0360243581811161139a576136009036906004016145fb565b919061360a61478b565b6005548410156137115783855260209160248352600b604087200190841161193c576136408461363a8354614628565b836147dd565b85601f851160011461369b579161117c9185600080516020615f108339815191529695948991613690575b508560011b906000198760031b1c19161790555b60405193838594855284019161496d565b90508201353861366b565b81875283872090601f198616885b8181106136fa57509161117c939187600080516020615f1083398151915298979694106136e0575b5050600185811b01905561367f565b830135600019600388901b60f8161c1916905538806136d1565b9192866001819286890135815501940192016136a9565b60405163a86ecdd560e01b815260048101859052602490fd5b503461040957608036600319011261040957613745366145d3565b6001600160401b039060443582811161139a5761376690369060040161438e565b6064358381116113965761377e90369060040161438e565b90825185526026602052604085206020840151865260205260ff9384604087205416613b665760075464ffffffffff7f00000000000000000000000000000000000000000000000000000000000000009160281c161015613b54576137e984516020860151906152ab565b15613b42576001600160a01b03918691907f0000000000000000000000000000000000000000000000000000000000000000841690813b1561139a5783916138489160405195868094819363125c7dfb60e11b83523360048401614f09565b03925af180156108dc57613b19575b505061387c91602091604051808095819463b36543a960e01b83523360048401614f09565b03917f0000000000000000000000000000000000000000000000000000000000000000165afa90811561346c578491613ae7575b506138d46040516138c081614267565b838152826020820152426040820152615dd5565b926007549364ffffffffff8560281c169060019586830164ffffffffff8111613ad15764ffffffffff60281b1990911660289190911b64ffffffffff60281b161760075590869073__$1540826e134b1b69b7091c82576ee3aadd$__90875b6139bf575b505050505061395264ffffffffff60075460281c16614f2b565b7fd3c3cd829e4e37d5baaf10abace26b24e0046e20500c999380410f807edfcda0606084519260208601519464ffffffffff604051921682526020820152426040820152a38051835260266020526020604084209101518352602052604082209060ff1982541617905580f35b64ffffffffff6139e4826139df868916602088901b60ff60201b16614f42565b61548c565b168952600893846020528060408b205588821615613acb57613a5394602091613a15613a0f85614f2b565b876154a5565b9164ffffffffff60405193613a2985614282565b168d52835260408c2054825282820152604051809681926314d2f97b60e11b83526004830161530a565b0381855af4938415613ac057889486918b91613a81575b5094938401169290811c647fffffffff1690613933565b955050506020843d602011613ab8575b81613a9e60209383614325565b810103126108d0578488647fffffffff8196519150613a6a565b3d9150613a91565b6040513d8b823e3d90fd5b50613938565b634e487b7160e01b600052601160045260246000fd5b90506020813d602011613b11575b81613b0260209383614325565b810103126108d05751386138b0565b3d9150613af5565b8196929611613b2e5760405293816020613857565b634e487b7160e01b82526041600452602482fd5b6040516379fae7af60e01b8152600490fd5b60405163b984588b60e01b8152600490fd5b604051632e13e04560e01b8152600490fd5b5034610409578060031936011261040957604060115460125482519182526020820152f35b5034610409576040366003190112610409576020612148613bbc6143c2565b600435614e94565b50346104095780600319360112610409576013546040516001600160a01b039091168152602090f35b50346104095780600319360112610409576020600554604051908152f35b503461040957606036600319011261040957604435801515810361040557613c3890602435600435614bdc565b60405190602092838301848452825180915260408401948060408360051b870101940192955b828710613c6b5785850386f35b909192938280613c87600193603f198a8203018652885161449f565b9601920196019592919092613c5e565b503461040957602036600319011261040957600435613cb4614a31565b50600554811015613ce457604082613cd59260609452600660205220614935565b613ce26040518092614478565bf35b6024906040519063a86ecdd560e01b82526004820152fd5b5034610409576020806003193601126104055760043582526023815260408220916040518092808554928381520194835280832092905b828210613d4a576103ea856103de81890382614325565b835486529485019460019384019390910190613d33565b50346104095780600319360112610409576014546040516001600160a01b039091168152602090f35b5034610409578060031936011261040957602064ffffffffff60075460281c16604051908152f35b503461040957602036600319011261040957600435613dcf614a50565b50600554811015613ce457604082613df1926103ea9452602460205220614ac7565b60405191829160208352602083019061449f565b503461040957610140366003190112610409576024356001600160401b03811161040557613e3790369060040161438e565b613e3f6143ac565b60a4356001600160a01b038116919082900361139a576101243590811515820361139657606435855260176020526024602060018060a01b03600660408920015416604051928380926370a0823160e01b82528860048301525afa90811561085d5786916141ad575b506064358652601760205260056040872001541161416857613ecb600c546147b7565b9283600c55855260166020526040852054604435670de0b6b3a764000091818381020483148215171561415457604051966001600160401b0361016089019081119089111761414057610160880160405286885260043560208901526040880152606087015202608085015260643560a085015260018060a01b031660c084015260c43560e084015260e43561010084015261010435610120840152151561014083015282526018602052604082208151815560208201516001820155604082015180519060018060401b03821161412c57613fb782613fae6002860154614628565b600286016147dd565b602090601f83116001146140b95791806101409492600a9488926140ae575b50508160011b916000199060031b1c19161760028201555b606084015160038201556080840151600482015560a084015160058201556006810160018060a01b0360c08601511660018060a01b031982541617905560e084015160078201556101008401516008820155610120840151600982015501910151151560ff801983541691161790556064358152601a60205261407760408220600c54906148a7565b600c547f2e8c120bfdd294891f6ac45b1d661997690ad24bb51f51e4d357365f25c190236040518061117c60a435606435836148dc565b015190503880613fd6565b906002840186526020862091865b601f19851681106141145750926101409492600192600a9583601f198116106140fb575b505050811b016002820155613fee565b015160001960f88460031b161c191690553880806140eb565b919260206001819286850151815501940192016140c7565b634e487b7160e01b85526041600452602485fd5b634e487b7160e01b89526041600452602489fd5b634e487b7160e01b88526011600452602488fd5b60405162461bcd60e51b815260206004820152601d60248201527f596f7520646f206e6f74206861766520656e6f75676820746f6b656e730000006044820152606490fd5b90506020813d6020116141d7575b816141c860209383614325565b81010312611a86575138613ea8565b3d91506141bb565b50346104095780600319360112610409576040517f00000000000000000000000000000000000000000000000000000000000000006001600160a01b03168152602090f35b9050346104055781600319360112610405577f00000000000000000000000000000000000000000000000000000000000000006001600160a01b03168152602090f35b606081019081106001600160401b03821117611a4857604052565b604081019081106001600160401b03821117611a4857604052565b60c081019081106001600160401b03821117611a4857604052565b608081019081106001600160401b03821117611a4857604052565b61014081019081106001600160401b03821117611a4857604052565b602081019081106001600160401b03821117611a4857604052565b60a081019081106001600160401b03821117611a4857604052565b601f909101601f19168101906001600160401b03821190821017611a4857604052565b9192916001600160401b038211611a485760405191614371601f8201601f191660200184614325565b8294818452818301116108d0578281602093846000960137010152565b9080601f830112156108d0578160206143a993359101614348565b90565b608435906001600160a01b03821682036108d057565b602435906001600160a01b03821682036108d057565b604435906001600160a01b03821682036108d057565b600435906001600160a01b03821682036108d057565b60c435906001600160a01b03821682036108d057565b60e435906001600160a01b03821682036108d057565b60005b8381106144435750506000910152565b8181015183820152602001614433565b9060209161446c81518092818552858086019101614430565b601f01601f1916010190565b80516001600160a01b03908116835260208083015182169084015260409182015116910152565b9190825181526020906144e96144d76144c5848701516101808087870152850190614453565b60408701518482036040860152614453565b60608601518382036060850152614453565b936144fc60808201516080840190614478565b60a081015160e083015260c081015190610100918284015260e08101519161012092838501528101519383870361014085015284518088528188019180808360051b8b01019701926000905b83821061456b5750505050506143a9949550015190610160818403910152614453565b909192939783806145896001938e601f199082030186528c51614453565b9a019201920190939291614548565b6020908160408183019282815285518094520193019160005b8281106145bf575050505090565b8351855293810193928101926001016145b1565b60409060031901126108d057604051906145ec82614282565b60043582526024356020830152565b9181601f840112156108d0578235916001600160401b0383116108d057602083818601950101116108d057565b90600182811c92168015614658575b602083101461464257565b634e487b7160e01b600052602260045260246000fd5b91607f1691614637565b906000929180549161467383614628565b9182825260019384811690816000146146d55750600114614695575b50505050565b90919394506000526020928360002092846000945b8386106146c157505050500101903880808061468f565b8054858701830152940193859082016146aa565b9294505050602093945060ff191683830152151560051b0101903880808061468f565b906040519161470683614282565b8260449182116108d0576004905b82821061472057505050565b8135815260209182019101614714565b60409060031901126108d0576004359060243590565b805482101561475e5760005260206000200190600090565b634e487b7160e01b600052603260045260246000fd5b6001600160401b038111611a485760051b60200190565b6009546001600160a01b0316330361479f57565b60405163118cdaa760e01b8152336004820152602490fd5b6000198114613ad15760010190565b8181106147d1575050565b600081556001016147c6565b9190601f81116147ec57505050565b614818926000526020600020906020601f840160051c8301931061481a575b601f0160051c01906147c6565b565b909150819061480b565b9061483c602091949394604084526040840190614453565b6001600160a01b03909416910152565b1561485357565b60405162461bcd60e51b815260206004820152602660248201527f55736572206973206e6f74207265676973746572656420696e746f207468652060448201526573797374656d60d01b6064820152608490fd5b8054600160401b811015611a48576148c491600182018155614746565b819291549060031b91821b91600019901b1916179055565b9081526001600160a01b03909116602082015260400190565b156148fc57565b60405162461bcd60e51b81526020600482015260116024820152704e6f7420656e6f75676820546f6b656e7360781b6044820152606490fd5b9060405161494281614267565b82546001600160a01b0390811682526001840154811660208301526002909301549092166040830152565b908060209392818452848401376000828201840152601f01601f1916010190565b9082818152602080910193818360051b82010194846000925b8584106149b8575050505050505090565b90919293949596601f198282030184528735601e19843603018112156108d05783018681019190356001600160401b0381116108d05780360383136108d057614a068892839260019561496d565b9901940194019295949391906149a7565b91908201809211613ad157565b91908203918211613ad157565b60405190614a3e82614267565b60006040838281528260208201520152565b60405190614a5d826142d3565b81600081526101206060918260208201528260408201528280820152614a81614a31565b6080820152600060a0820152600060c0820152600060e0820152826101008201520152565b80511561475e5760200190565b805182101561475e5760209160051b010190565b90604091825190614ad7826142d3565b81938154835280516001614af882614af181848801614662565b0383614325565b602091828601528251614b1281610a208160028901614662565b838601528251614b2981610a208160038901614662565b6060860152614b3a60048501614935565b6080860152600784015460a0860152600884015460c0860152600984015460e0860152600a8401805490614b6d82614774565b93614b7a86519586614325565b82855260009182528082208186015b848410614bba57505050505050610120926109ea8593614bb693610100600b980152518096819301614662565b0152565b858381928a51614bce81610a208189614662565b815201920193019290614b89565b60001993928482019290918311613ad15780830292808404821490151715613ad157614c089083614a17565b93808501948511613ad15784916005549586851015614d1c57861115614d0a575b614c338484614a24565b9060018201809211613ad157614c4882614774565b92604092614c5884519586614325565b808552614c67601f1991614774565b0160005b818110614cf357505083976000965b86811115614c8c575050505050505050565b808415614cd7575b90614cd2916000526024602052614ccc8660002099614cbb614cb5826147b7565b9b614ac7565b614cc5828b614ab3565b5288614ab3565b506147b7565b614c7a565b50614ce28183614a24565b90838201918211613ad15790614c94565b602090614cfe614a50565b82828901015201614c6b565b9150808501858111613ad15791614c29565b50505050509050604051614d2f816142ef565b6000815290565b15614d3d57565b606460405162461bcd60e51b815260206004820152602060248201527f4f6e6c79206d656d62657273206f66207468652064616f2063616e20766f74656044820152fd5b15614d8857565b60405162461bcd60e51b8152602060048201526016602482015275159bdd1a5b99c81a185cc81b9bdd081cdd185c9d195960521b6044820152606490fd5b15614dcd57565b60405162461bcd60e51b8152602060048201526015602482015274159bdd1a5b99c8151a5b59481a185cc8195b991959605a1b6044820152606490fd5b908160209103126108d0575180151581036108d05790565b6001600160a01b03918216815291166020820152604081019190915260600190565b60005b82600052601b60205260406000208054821015614e8b5781614e6891614746565b90549060031b1c8214614e8357614e7e906147b7565b614e47565b505050600190565b50505050600090565b60009160018060a01b03168252602060168152604080842054918385526019908181528286205494865b868110614ecf575050505050505090565b818852838352614ee181868a20614746565b90549060031b1c8614614efc57614ef7906147b7565b614ebe565b5050505050505050600190565b6001600160a01b0390911681526040602082018190526143a992910190614453565b64ffffffffff9081166000190191908211613ad157565b64ffffffffff9182169082160391908211613ad157565b908160209103126108d057516001600160a01b03811681036108d05790565b906002821015614f855752565b634e487b7160e01b600052602160045260246000fd5b9391949092946005549260018401600555815195602097614fc1898501988951906152ab565b15613b4257606087019660ff8851166000198101908111613ad157600581101561475e5754604080516370f7b36160e01b81526004810195909552825160ff9081166024870152838d015181166044870152928101518316606486015298519091166084840152845160a4840152885160c48401523060e48401526101048301526000916001600160a01b03918a8261012481877f000000000000000000000000000000000000000000000000000000000000000088165af19182156152a1578492615282575b508280808b5193633634487360e01b85521696876004850152169283602484015216918260448301523360648301526150c46084830189614f78565b8b8260a48188887f0000000000000000000000000000000000000000000000000000000000000000165af191821561527857908492918692615259575b508a519663431a717560e01b885260048801526024870152826044870152169283606486015233608486015261513a60a4860188614f78565b8a8560c48184877f0000000000000000000000000000000000000000000000000000000000000000165af194851561524d579189828d61520d9997957f38b2d18bb65cc91d7b436014cf44c8298b13bee60cc18d9e8efec26d1df318909d9c9b99979597615210575b509184916006600295948351956151b987614267565b8652808601988952848487019a168a528d835252209151169360018060a01b031994858354161782558360018301915116858254161790550192511690825416179055519551968451938452830190614f78565ba3565b81975091600661523a879460029796943d8c11615246575b6152328183614325565b810190614f59565b989294955050916151a3565b503d615228565b508851903d90823e3d90fd5b6152719192508d803d10615246576152328183614325565b9038615101565b8a513d87823e3d90fd5b61529a9192508b3d8d11615246576152328183614325565b9038615088565b89513d86823e3d90fd5b90600080516020615f30833981519152808080858196099380098180828187620292fc090894620292f809096001089080828111156152f7575b506000916152f291614a24565b081590565b9050828101809111613ad15760006152e5565b6040810192916000915b6002831061532157505050565b600190825181526020809101920192019190615314565b602061535891604051809381926314d2f97b60e11b83526004830161530a565b038173__$1540826e134b1b69b7091c82576ee3aadd$__5af49081156153b157600091615383575090565b906020823d82116153a9575b8161539c60209383614325565b8101031261040957505190565b3d915061538f565b6040513d6000823e3d90fd5b60405163248f667760e01b81529060049060008284015b83821061540e575050505060208160848173__$e61c65d9562aef5fa6ab22c0f787cf1e30$__5af49081156153b157600091615383575090565b6001908351815260208091019301910190916153d4565b604051630926f44b60e31b815290600090600483015b600583106154755750505060208160a48173__$46fbdf6658faf65265971bdad66851b86c$__5af49081156153b157600091615383575090565b60019082518152602080910192019201919061543b565b91909164ffffffffff80809416911601918211613ad157565b6143a991906139df9060ff81169060201b60ff60201b16614f42565b60ff60019116019060ff8211613ad157565b919060ff92838216916020908184116157f75764ffffffffff918284169182156157e65761550188916154c1565b1661553861550e82614774565b9560409261551e84519889614325565b80885261552d601f1991614774565b013685890137614f2b565b9060019485808416156000146157c3575080831694818611613ad157869560005260088552826000205461556b89614aa6565b52999592995b6000935b615590575b5050505050505061558c929350614ab3565b5190565b86849a9998979a16888110156157b857858c881661567f576155ea916155c18651916155bb83614282565b8b614ab3565b5181526155cd87615809565b828201528551809381926314d2f97b60e11b83526004830161530a565b038173__$1540826e134b1b69b7091c82576ee3aadd$__5af490811561567457600091615647575b509986647fffffffff829d8a9b9c9d615637849c866156308c6154c1565b1690614ab3565b525b821c16950116939a96615575565b908682813d831161566d575b61565d8183614325565b8101031261040957505186615612565b503d615653565b84513d6000823e3d90fd5b5082828c61568c886154c1565b161c1690647fffffffff8d891c168092116000146156e757509986647fffffffff829d856156c6849c9d9e9f6156c18b6154c1565b6154a5565b166000526008895286600020546156e18d866156308c6154c1565b52615639565b61574591508690846157028f6156fc90614f2b565b896154a5565b166000526008825261572786600020549187519261571f84614282565b83528b614ab3565b51828201528551809381926314d2f97b60e11b83526004830161530a565b038173__$1540826e134b1b69b7091c82576ee3aadd$__5af49081156156745760009161578b575b509986647fffffffff829d8a9b9c9d6156e1849c866156308c6154c1565b908682813d83116157b1575b6157a18183614325565b810103126104095750518661576d565b503d615797565b50869798995061557a565b94600080516020615f508339815191526157dc89614aa6565b5299959299615571565b9450505050506143a9919250615809565b604051633e104c7760e01b8152600490fd5b60ff168015615dc25760018114615d9d5760028114615d785760038114615d535760048114615d2e5760058114615d095760068114615ce45760078114615cbf5760088114615c9a5760098114615c7557600a8114615c5057600b8114615c2b57600c8114615c0657600d8114615be157600e8114615bbc57600f8114615b975760108114615b725760118114615b4d5760128114615b285760138114615b035760148114615ade5760158114615ab95760168114615a945760178114615a6f5760188114615a4a5760198114615a2557601a8114615a0057601b81146159db57601c81146159b657601d811461599157601e811461596c57601f811461594757602014615923576040516310a2ea0560e21b8152600490fd5b7f1d90601a0c76d2f39824f6dc198fb3b48cbd0231516c8f6208e56ea741c341f990565b507f216b9fa3ac3724cf1ec6caf5a66dd85cae3aee727e00d2a0a59f273df3401f1090565b507f2b59c2651b412c029efa38f835ac1b1b5bdaf89dcb2e4bc9219e7d77c65e776a90565b507f14b46e659dc4072fc64a18d44911c4a303b45f1296c3cb7dec77f269bee9b5df90565b507f0845dd838ca63b2f68775aac8513bd692d26f511698206f3c6ce2b4100dd8d8f90565b507f132e4ff3e4ba890f1610efd4d2f69700b825514d557b82663878a56e2acef41c90565b507f24cb019b59431c232413f66b041923214f7a8a7489caa05b66860f1c3c76d3b190565b507f1b6367322bac9f24889900d310e2feaa0021516fac77470aea078e89335d3fcf90565b507f19b336a1e0a933e2a8f97d97322dcee843a2d9a2401bece52a3a25ddd5bb6bc990565b507f1d71ada9e49baeb4a2cf26be37d3bc680554995ef6706105e93978ba71cacf9490565b507f2560496c1138c827f1efb407d0cdb9d6ec9539b0957dfb67de2776e6026d630f90565b507f2ce2c1fb109ad6574570826774ecfca3e04866bb5a3963962b873646db6641f390565b507f1713f3e3dc5e2393bd31ccc0cdd8601bdee3198cf34d566bb60cfab13e5a087390565b507f2c849a73ab21c9e88e1d711f221863e2a94eb58f3eb42dde575301451f3ec5c890565b507f1874217e8e1dbc51c571a2db1103bf47c3e66a59305ca48bbcee6ad1c8cc575190565b507f2b8342160822355808db759147a7d6f61de451bd5bb88f9db2eb406ea68b813890565b507f199cd1f5b757c285023767abbe9bbb318da4e1fd375b5a001b54a0f3901ea7d390565b507f128fb9ad5b2d8e694bec0888ff95609c15b2a96ae80a34946c953dc503e46fb690565b507f2ec047dd616221873c234f36461080c3e760644bb519ebdb49eb9645215e0edc90565b507f2582b5cdefe032d75373f0ede9171406137e93e7d44405a0b0a409c1c739138090565b507f1f336d6d45d293180c75964e99a7599d44cac2ad447c202c3e1973b0322cf99090565b507f05e0136534f74776d69646bd0bd94519e63af45734405f479382d8400514c1a690565b507f10f7b76489e9c36644736c33c600d1bcedd465fd0aff3027e67b02e13875272d90565b507f1e73f08f6e5e4bb9c2096cc4587526ebfd033c222f4a27e97119c867c36a0d3a90565b507f1ea63a974336db6c0423e719d3f0e11494266237dda3a40de3cb76104436635990565b507f0690bfb582c7502ff6d15d519740ecd73d652b7a14dc82bfd250613ee8e0407690565b507f30553f8216db90854953edd47602897f897104d5b0d65a5ce000981c51da32e090565b507f11dc55d21b17daf8e60253c2a43d519039ba968733cf7c9d5df6155939e1a6d890565b507f08e4b5d410c8de929132c214ea600b5f252fa14aabb97ea67cda5bb4e0ebeec890565b507f04265868d2e705f48d3ae49f7749e67a587dafdb569c1d7334675496046eaad690565b507f2a06fb0b739b402c34dc752d8417b9cd67b7f7cabe4b06b5d995053791fcede490565b507f06928e817d2804a3713efd102bae900c9ab3e8e0b0c6c20f8613bd3b0423a89190565b50600080516020615f5083398151915290565b6143a9906040805191615de7836142b8565b608036843780515183526020815101516020840152602081015182840152015160608201526153bd565b60206143a9926040615eb9815194615e288661430a565b60a0368737805151865284815101518587015282815101518387015260608151015160608701526080815101516080870152610120835191615e698361430a565b60a036843760a081510151835260c0815101518784015260e081510151858401526101008151015160608401525101516080820152615eb2835196615ead886142b8565b615425565b8652615425565b83850152815190840152015160608201526153bd56fe7532e9985b123ef8bda3bc40b1a4296f34238889a58a41de23df560b8bfb9bc6526a4ede5e3a32e00a9764bde0eecbb0544853b17bebb12f4a8500ccd51372152cd30b9efd64638f847bef681e87dfbb567e261d02660c8166a92f33729ab33e30644e72e131a029b85045b68181585d2833e84879b9709143e1f593f00000010ef71f46e11a513c599eed9dd03576c33439bcfb1cee155316f90541e41649ba1c81d7053f5e6f875e0d7b584d3354071899b7dc927e6d7b48b58caa90cf3de88be0079c531659141344cd1fd0a4f28419497f9722a3daafe3b4186f6b6457e0a2646970667358221220ea5b01e6cc4cd1d71d4c324a3d9dd82963e8e8c5682da3d6e01582428c01413464736f6c63430008140033",
  "libraries": {
    "PoseidonT3": "0xDb6F8a73C48a17D8462762296ef353B5D0c113ea",
    "PoseidonT4": "0x644929660057bc5680453C80BBea3ea08b3F34d8",
    "PoseidonT5": "0x8255C396fED4f733102A32d759A2Fc245890BE98",
    "PoseidonT6": "0xdAfb17eCdc446C97a6878D1a54D0bA73098b48BB"
  },
  "devdoc": {
    "errors": {
      "OwnableInvalidOwner(address)": [
        {
          "details": "The owner is not a valid owner account. (eg. `address(0)`)"
        }
      ],
      "OwnableUnauthorizedAccount(address)": [
        {
          "details": "The caller account is not authorized to perform an operation."
        }
      ]
    },
    "kind": "dev",
    "methods": {
      "deployPoll(uint256,(uint8,uint8,uint8,uint8),(uint256,uint256),address,address,uint8)": {
        "params": {
          "_coordinatorPubKey": "The coordinator's public key",
          "_duration": "How long should the Poll last for",
          "_mode": "Voting mode",
          "_treeDepths": "The depth of the Merkle trees",
          "_verifier": "The Verifier Contract",
          "_vkRegistry": "The VkRegistry Contract"
        }
      },
      "getPoll(uint256)": {
        "params": {
          "_pollId": "The identifier of the Poll to retrieve"
        },
        "returns": {
          "pollContracts": "The Poll contract object"
        }
      },
      "getStateTreeRoot()": {
        "returns": {
          "root": "The Merkle root"
        }
      },
      "hash2(uint256[2])": {
        "params": {
          "array": "An array of two uint256 elements."
        },
        "returns": {
          "result": "The Poseidon hash of the two elements."
        }
      },
      "hash3(uint256[3])": {
        "params": {
          "array": "An array of three uint256 elements."
        },
        "returns": {
          "result": "The Poseidon hash of the three elements."
        }
      },
      "hash4(uint256[4])": {
        "params": {
          "array": "An array of four uint256 elements."
        },
        "returns": {
          "result": "The Poseidon hash of the four elements."
        }
      },
      "hash5(uint256[5])": {
        "params": {
          "array": "An array of five uint256 elements."
        },
        "returns": {
          "result": "The Poseidon hash of the five elements."
        }
      },
      "hashLeftRight(uint256,uint256)": {
        "params": {
          "left": "the first element to hash.",
          "right": "the second element to hash."
        },
        "returns": {
          "result": "The Poseidon hash of the two elements."
        }
      },
      "hashMessageAndEncPubKey((uint256[10]),(uint256,uint256))": {
        "params": {
          "_encPubKey": "the encryption public key to be hashed",
          "_message": "the message to be hashed"
        },
        "returns": {
          "msgHash": "The hash of the message and the encryption public key"
        }
      },
      "hashStateLeaf(((uint256,uint256),uint256,uint256))": {
        "params": {
          "_stateLeaf": "the state leaf to be hashed"
        },
        "returns": {
          "ciphertext": "The hash of the state leaf"
        }
      },
      "numSignUps()": {
        "returns": {
          "signUps": "numsignUps The number of signups"
        }
      },
      "owner()": {
        "details": "Returns the address of the current owner."
      },
      "padAndHashMessage(uint256[2])": {
        "params": {
          "dataToPad": "the data to be padded"
        },
        "returns": {
          "message": "The padded message",
          "msgHash": "The hash of the padded message and encryption key",
          "padKey": "The padding public key"
        }
      },
      "renounceOwnership()": {
        "details": "Leaves the contract without owner. It will not be possible to call `onlyOwner` functions. Can only be called by the current owner. NOTE: Renouncing ownership will leave the contract without an owner, thereby disabling any functionality that is only available to the owner."
      },
      "sha256Hash(uint256[])": {
        "params": {
          "array": "The array of uint256 elements."
        },
        "returns": {
          "result": "The SHA256 hash of the array."
        }
      },
      "signUp((uint256,uint256),bytes,bytes)": {
        "params": {
          "_initialVoiceCreditProxyData": "Data to pass to the     InitialVoiceCreditProxy, which allows it to determine how many voice     credits this user should have.",
          "_pubKey": "The user's desired public key.",
          "_signUpGatekeeperData": "Data to pass to the sign-up gatekeeper's     register() function. For instance, the POAPGatekeeper or     SignUpTokenGatekeeper requires this value to be the ABI-encoded     token ID."
        }
      },
      "transferOwnership(address)": {
        "details": "Transfers ownership of the contract to a new account (`newOwner`). Can only be called by the current owner."
      }
    },
    "version": 1
  },
  "userdoc": {
    "errors": {
      "DefaultZeroBadIndex()": [
        {
          "notice": "Custom errors"
        }
      ],
      "InvalidMessage()": [
        {
          "notice": "custom errors"
        }
      ],
      "PoseidonHashLibrariesNotLinked()": [
        {
          "notice": "custom errors"
        }
      ]
    },
    "kind": "user",
    "methods": {
      "MESSAGE_DATA_LENGTH()": {
        "notice": "the length of a MACI message"
      },
      "deployPoll(uint256,(uint8,uint8,uint8,uint8),(uint256,uint256),address,address,uint8)": {
        "notice": "Deploy a new Poll contract."
      },
      "emptyBallotRoots(uint256)": {
        "notice": "The roots of the empty ballot trees"
      },
      "getPoll(uint256)": {
        "notice": "Get the Poll details"
      },
      "getStateTreeRoot()": {
        "notice": "Return the main root of the StateAq contract"
      },
      "hash2(uint256[2])": {
        "notice": "Computes the Poseidon hash of two uint256 elements."
      },
      "hash3(uint256[3])": {
        "notice": "Computes the Poseidon hash of three uint256 elements."
      },
      "hash4(uint256[4])": {
        "notice": "Computes the Poseidon hash of four uint256 elements."
      },
      "hash5(uint256[5])": {
        "notice": "Computes the Poseidon hash of five uint256 elements."
      },
      "hashLeftRight(uint256,uint256)": {
        "notice": "Computes the Poseidon hash of two uint256 elements."
      },
      "hashMessageAndEncPubKey((uint256[10]),(uint256,uint256))": {
        "notice": "An utility function used to hash a MACI message and an encryption public key"
      },
      "hashStateLeaf(((uint256,uint256),uint256,uint256))": {
        "notice": "An utility function used to hash a state leaf"
      },
      "initialVoiceCreditProxy()": {
        "notice": "The contract which provides the values of the initial voice credit balance per user"
      },
      "lazyIMTData()": {
        "notice": "The state tree. Represents a mapping between each user's public key and their voice credit balance."
      },
      "messageProcessorFactory()": {
        "notice": "Factory contract that deploy a MessageProcessor contract"
      },
      "nextPollId()": {
        "notice": "Each poll has an incrementing ID"
      },
      "numSignUps()": {
        "notice": "Get the number of signups"
      },
      "padAndHashMessage(uint256[2])": {
        "notice": "An utility function used to pad and hash a MACI message"
      },
      "pollFactory()": {
        "notice": "Factory contract that deploy a Poll contract"
      },
      "polls(uint256)": {
        "notice": "A mapping of poll IDs to Poll contracts."
      },
      "sha256Hash(uint256[])": {
        "notice": "Computes the SHA256 hash of an array of uint256 elements."
      },
      "signUp((uint256,uint256),bytes,bytes)": {
        "notice": "Allows any eligible user sign up. The sign-up gatekeeper should prevent double sign-ups or ineligible users from doing so.  This function will only succeed if the sign-up deadline has not passed. It also enqueues a fresh state leaf into the state AccQueue."
      },
      "signUpGatekeeper()": {
        "notice": "Address of the SignUpGatekeeper, a contract which determines whether a user may sign up to vote"
      },
      "stateTreeDepth()": {
        "notice": "The state tree depth is fixed. As such it should be as large as feasible so that there can be as many users as possible.  i.e. 2 ** 23 = 8388608 this should also match the parameter of the circom circuits.IMPORTANT: remember to change the ballot tree depth in contracts/ts/genEmptyBallotRootsContract.ts file if we change the state tree depth!"
      },
      "tallyFactory()": {
        "notice": "Factory contract that deploy a Tally contract"
      }
    },
    "version": 1
  },
  "storageLayout": {
    "storage": [
      {
        "astId": 5453,
        "contract": "contracts/maci-contracts/DAOManager.sol:DAOManager",
        "label": "emptyBallotRoots",
        "offset": 0,
        "slot": "0",
        "type": "t_array(t_uint256)5_storage"
      },
      {
        "astId": 5456,
        "contract": "contracts/maci-contracts/DAOManager.sol:DAOManager",
        "label": "nextPollId",
        "offset": 0,
        "slot": "5",
        "type": "t_uint256"
      },
      {
        "astId": 5462,
        "contract": "contracts/maci-contracts/DAOManager.sol:DAOManager",
        "label": "polls",
        "offset": 0,
        "slot": "6",
        "type": "t_mapping(t_uint256,t_struct(PollContracts)5494_storage)"
      },
      {
        "astId": 5478,
        "contract": "contracts/maci-contracts/DAOManager.sol:DAOManager",
        "label": "lazyIMTData",
        "offset": 0,
        "slot": "7",
        "type": "t_struct(LazyIMTData)7629_storage"
      },
      {
        "astId": 8,
        "contract": "contracts/maci-contracts/DAOManager.sol:DAOManager",
        "label": "_owner",
        "offset": 0,
        "slot": "9",
        "type": "t_address"
      },
      {
        "astId": 3677,
        "contract": "contracts/maci-contracts/DAOManager.sol:DAOManager",
        "label": "userSideAdmin",
        "offset": 0,
        "slot": "10",
        "type": "t_address"
      },
      {
        "astId": 3680,
        "contract": "contracts/maci-contracts/DAOManager.sol:DAOManager",
        "label": "totalUsers",
        "offset": 0,
        "slot": "11",
        "type": "t_uint256"
      },
      {
        "astId": 3683,
        "contract": "contracts/maci-contracts/DAOManager.sol:DAOManager",
        "label": "totalProposals",
        "offset": 0,
        "slot": "12",
        "type": "t_uint256"
      },
      {
        "astId": 3686,
        "contract": "contracts/maci-contracts/DAOManager.sol:DAOManager",
        "label": "totalDaos",
        "offset": 0,
        "slot": "13",
        "type": "t_uint256"
      },
      {
        "astId": 3689,
        "contract": "contracts/maci-contracts/DAOManager.sol:DAOManager",
        "label": "contractCreationTime",
        "offset": 0,
        "slot": "14",
        "type": "t_uint256"
      },
      {
        "astId": 3692,
        "contract": "contracts/maci-contracts/DAOManager.sol:DAOManager",
        "label": "totalDocuments",
        "offset": 0,
        "slot": "15",
        "type": "t_uint256"
      },
      {
        "astId": 3695,
        "contract": "contracts/maci-contracts/DAOManager.sol:DAOManager",
        "label": "treeDepths",
        "offset": 0,
        "slot": "16",
        "type": "t_struct(TreeDepths)8419_storage"
      },
      {
        "astId": 3698,
        "contract": "contracts/maci-contracts/DAOManager.sol:DAOManager",
        "label": "coordinatorPubKey",
        "offset": 0,
        "slot": "17",
        "type": "t_struct(PubKey)8392_storage"
      },
      {
        "astId": 3700,
        "contract": "contracts/maci-contracts/DAOManager.sol:DAOManager",
        "label": "verifier",
        "offset": 0,
        "slot": "19",
        "type": "t_address"
      },
      {
        "astId": 3702,
        "contract": "contracts/maci-contracts/DAOManager.sol:DAOManager",
        "label": "vkRegistry",
        "offset": 0,
        "slot": "20",
        "type": "t_address"
      },
      {
        "astId": 3707,
        "contract": "contracts/maci-contracts/DAOManager.sol:DAOManager",
        "label": "userIdtoUser",
        "offset": 0,
        "slot": "21",
        "type": "t_mapping(t_uint256,t_struct(user)3898_storage)"
      },
      {
        "astId": 3711,
        "contract": "contracts/maci-contracts/DAOManager.sol:DAOManager",
        "label": "userWallettoUserId",
        "offset": 0,
        "slot": "22",
        "type": "t_mapping(t_address,t_uint256)"
      },
      {
        "astId": 3716,
        "contract": "contracts/maci-contracts/DAOManager.sol:DAOManager",
        "label": "daoIdtoDao",
        "offset": 0,
        "slot": "23",
        "type": "t_mapping(t_uint256,t_struct(dao)3917_storage)"
      },
      {
        "astId": 3721,
        "contract": "contracts/maci-contracts/DAOManager.sol:DAOManager",
        "label": "proposalIdtoProposal",
        "offset": 0,
        "slot": "24",
        "type": "t_mapping(t_uint256,t_struct(proposal)3940_storage)"
      },
      {
        "astId": 3726,
        "contract": "contracts/maci-contracts/DAOManager.sol:DAOManager",
        "label": "daoIdtoMembers",
        "offset": 0,
        "slot": "25",
        "type": "t_mapping(t_uint256,t_array(t_uint256)dyn_storage)"
      },
      {
        "astId": 3731,
        "contract": "contracts/maci-contracts/DAOManager.sol:DAOManager",
        "label": "daoIdtoProposals",
        "offset": 0,
        "slot": "26",
        "type": "t_mapping(t_uint256,t_array(t_uint256)dyn_storage)"
      },
      {
        "astId": 3736,
        "contract": "contracts/maci-contracts/DAOManager.sol:DAOManager",
        "label": "proposalIdtoVoters",
        "offset": 0,
        "slot": "27",
        "type": "t_mapping(t_uint256,t_array(t_uint256)dyn_storage)"
      },
      {
        "astId": 3741,
        "contract": "contracts/maci-contracts/DAOManager.sol:DAOManager",
        "label": "proposalIdtoYesVoters",
        "offset": 0,
        "slot": "28",
        "type": "t_mapping(t_uint256,t_array(t_uint256)dyn_storage)"
      },
      {
        "astId": 3746,
        "contract": "contracts/maci-contracts/DAOManager.sol:DAOManager",
        "label": "proposalIdtoNoVoters",
        "offset": 0,
        "slot": "29",
        "type": "t_mapping(t_uint256,t_array(t_uint256)dyn_storage)"
      },
      {
        "astId": 3751,
        "contract": "contracts/maci-contracts/DAOManager.sol:DAOManager",
        "label": "proposalIdtoAbstainVoters",
        "offset": 0,
        "slot": "30",
        "type": "t_mapping(t_uint256,t_array(t_uint256)dyn_storage)"
      },
      {
        "astId": 3756,
        "contract": "contracts/maci-contracts/DAOManager.sol:DAOManager",
        "label": "userIdtoDaos",
        "offset": 0,
        "slot": "31",
        "type": "t_mapping(t_uint256,t_array(t_uint256)dyn_storage)"
      },
      {
        "astId": 3762,
        "contract": "contracts/maci-contracts/DAOManager.sol:DAOManager",
        "label": "quadraticYesMappings",
        "offset": 0,
        "slot": "32",
        "type": "t_mapping(t_uint256,t_mapping(t_uint256,t_uint256))"
      },
      {
        "astId": 3768,
        "contract": "contracts/maci-contracts/DAOManager.sol:DAOManager",
        "label": "quadraticNoMappings",
        "offset": 0,
        "slot": "33",
        "type": "t_mapping(t_uint256,t_mapping(t_uint256,t_uint256))"
      },
      {
        "astId": 3773,
        "contract": "contracts/maci-contracts/DAOManager.sol:DAOManager",
        "label": "documentIdtoDocument",
        "offset": 0,
        "slot": "34",
        "type": "t_mapping(t_uint256,t_struct(Document)3953_storage)"
      },
      {
        "astId": 3778,
        "contract": "contracts/maci-contracts/DAOManager.sol:DAOManager",
        "label": "daoIdtoDocuments",
        "offset": 0,
        "slot": "35",
        "type": "t_mapping(t_uint256,t_array(t_uint256)dyn_storage)"
      },
      {
        "astId": 3783,
        "contract": "contracts/maci-contracts/DAOManager.sol:DAOManager",
        "label": "_polls",
        "offset": 0,
        "slot": "36",
        "type": "t_mapping(t_uint256,t_struct(PollData)3976_storage)"
      },
      {
        "astId": 3787,
        "contract": "contracts/maci-contracts/DAOManager.sol:DAOManager",
        "label": "pollIds",
        "offset": 0,
        "slot": "37",
        "type": "t_mapping(t_address,t_uint256)"
      },
      {
        "astId": 3793,
        "contract": "contracts/maci-contracts/DAOManager.sol:DAOManager",
        "label": "isPublicKeyRegistered",
        "offset": 0,
        "slot": "38",
        "type": "t_mapping(t_uint256,t_mapping(t_uint256,t_bool))"
      }
    ],
    "types": {
      "t_address": {
        "encoding": "inplace",
        "label": "address",
        "numberOfBytes": "20"
      },
      "t_array(t_string_storage)dyn_storage": {
        "base": "t_string_storage",
        "encoding": "dynamic_array",
        "label": "string[]",
        "numberOfBytes": "32"
      },
      "t_array(t_uint256)5_storage": {
        "base": "t_uint256",
        "encoding": "inplace",
        "label": "uint256[5]",
        "numberOfBytes": "160"
      },
      "t_array(t_uint256)dyn_storage": {
        "base": "t_uint256",
        "encoding": "dynamic_array",
        "label": "uint256[]",
        "numberOfBytes": "32"
      },
      "t_bool": {
        "encoding": "inplace",
        "label": "bool",
        "numberOfBytes": "1"
      },
      "t_bytes_storage": {
        "encoding": "bytes",
        "label": "bytes",
        "numberOfBytes": "32"
      },
      "t_mapping(t_address,t_uint256)": {
        "encoding": "mapping",
        "key": "t_address",
        "label": "mapping(address => uint256)",
        "numberOfBytes": "32",
        "value": "t_uint256"
      },
      "t_mapping(t_uint256,t_array(t_uint256)dyn_storage)": {
        "encoding": "mapping",
        "key": "t_uint256",
        "label": "mapping(uint256 => uint256[])",
        "numberOfBytes": "32",
        "value": "t_array(t_uint256)dyn_storage"
      },
      "t_mapping(t_uint256,t_bool)": {
        "encoding": "mapping",
        "key": "t_uint256",
        "label": "mapping(uint256 => bool)",
        "numberOfBytes": "32",
        "value": "t_bool"
      },
      "t_mapping(t_uint256,t_mapping(t_uint256,t_bool))": {
        "encoding": "mapping",
        "key": "t_uint256",
        "label": "mapping(uint256 => mapping(uint256 => bool))",
        "numberOfBytes": "32",
        "value": "t_mapping(t_uint256,t_bool)"
      },
      "t_mapping(t_uint256,t_mapping(t_uint256,t_uint256))": {
        "encoding": "mapping",
        "key": "t_uint256",
        "label": "mapping(uint256 => mapping(uint256 => uint256))",
        "numberOfBytes": "32",
        "value": "t_mapping(t_uint256,t_uint256)"
      },
      "t_mapping(t_uint256,t_struct(Document)3953_storage)": {
        "encoding": "mapping",
        "key": "t_uint256",
        "label": "mapping(uint256 => struct DAOManager.Document)",
        "numberOfBytes": "32",
        "value": "t_struct(Document)3953_storage"
      },
      "t_mapping(t_uint256,t_struct(PollContracts)5494_storage)": {
        "encoding": "mapping",
        "key": "t_uint256",
        "label": "mapping(uint256 => struct MACI.PollContracts)",
        "numberOfBytes": "32",
        "value": "t_struct(PollContracts)5494_storage"
      },
      "t_mapping(t_uint256,t_struct(PollData)3976_storage)": {
        "encoding": "mapping",
        "key": "t_uint256",
        "label": "mapping(uint256 => struct DAOManager.PollData)",
        "numberOfBytes": "32",
        "value": "t_struct(PollData)3976_storage"
      },
      "t_mapping(t_uint256,t_struct(dao)3917_storage)": {
        "encoding": "mapping",
        "key": "t_uint256",
        "label": "mapping(uint256 => struct DAOManager.dao)",
        "numberOfBytes": "32",
        "value": "t_struct(dao)3917_storage"
      },
      "t_mapping(t_uint256,t_struct(proposal)3940_storage)": {
        "encoding": "mapping",
        "key": "t_uint256",
        "label": "mapping(uint256 => struct DAOManager.proposal)",
        "numberOfBytes": "32",
        "value": "t_struct(proposal)3940_storage"
      },
      "t_mapping(t_uint256,t_struct(user)3898_storage)": {
        "encoding": "mapping",
        "key": "t_uint256",
        "label": "mapping(uint256 => struct DAOManager.user)",
        "numberOfBytes": "32",
        "value": "t_struct(user)3898_storage"
      },
      "t_mapping(t_uint256,t_uint256)": {
        "encoding": "mapping",
        "key": "t_uint256",
        "label": "mapping(uint256 => uint256)",
        "numberOfBytes": "32",
        "value": "t_uint256"
      },
      "t_string_storage": {
        "encoding": "bytes",
        "label": "string",
        "numberOfBytes": "32"
      },
      "t_struct(Document)3953_storage": {
        "encoding": "inplace",
        "label": "struct DAOManager.Document",
        "members": [
          {
            "astId": 3942,
            "contract": "contracts/maci-contracts/DAOManager.sol:DAOManager",
            "label": "documentId",
            "offset": 0,
            "slot": "0",
            "type": "t_uint256"
          },
          {
            "astId": 3944,
            "contract": "contracts/maci-contracts/DAOManager.sol:DAOManager",
            "label": "documentTitle",
            "offset": 0,
            "slot": "1",
            "type": "t_string_storage"
          },
          {
            "astId": 3946,
            "contract": "contracts/maci-contracts/DAOManager.sol:DAOManager",
            "label": "documentDescription",
            "offset": 0,
            "slot": "2",
            "type": "t_string_storage"
          },
          {
            "astId": 3948,
            "contract": "contracts/maci-contracts/DAOManager.sol:DAOManager",
            "label": "ipfsHash",
            "offset": 0,
            "slot": "3",
            "type": "t_string_storage"
          },
          {
            "astId": 3950,
            "contract": "contracts/maci-contracts/DAOManager.sol:DAOManager",
            "label": "upoladerId",
            "offset": 0,
            "slot": "4",
            "type": "t_uint256"
          },
          {
            "astId": 3952,
            "contract": "contracts/maci-contracts/DAOManager.sol:DAOManager",
            "label": "daoId",
            "offset": 0,
            "slot": "5",
            "type": "t_uint256"
          }
        ],
        "numberOfBytes": "192"
      },
      "t_struct(LazyIMTData)7629_storage": {
        "encoding": "inplace",
        "label": "struct LazyIMTData",
        "members": [
          {
            "astId": 7622,
            "contract": "contracts/maci-contracts/DAOManager.sol:DAOManager",
            "label": "maxIndex",
            "offset": 0,
            "slot": "0",
            "type": "t_uint40"
          },
          {
            "astId": 7624,
            "contract": "contracts/maci-contracts/DAOManager.sol:DAOManager",
            "label": "numberOfLeaves",
            "offset": 5,
            "slot": "0",
            "type": "t_uint40"
          },
          {
            "astId": 7628,
            "contract": "contracts/maci-contracts/DAOManager.sol:DAOManager",
            "label": "elements",
            "offset": 0,
            "slot": "1",
            "type": "t_mapping(t_uint256,t_uint256)"
          }
        ],
        "numberOfBytes": "64"
      },
      "t_struct(PollContracts)5494_storage": {
        "encoding": "inplace",
        "label": "struct MACI.PollContracts",
        "members": [
          {
            "astId": 5489,
            "contract": "contracts/maci-contracts/DAOManager.sol:DAOManager",
            "label": "poll",
            "offset": 0,
            "slot": "0",
            "type": "t_address"
          },
          {
            "astId": 5491,
            "contract": "contracts/maci-contracts/DAOManager.sol:DAOManager",
            "label": "messageProcessor",
            "offset": 0,
            "slot": "1",
            "type": "t_address"
          },
          {
            "astId": 5493,
            "contract": "contracts/maci-contracts/DAOManager.sol:DAOManager",
            "label": "tally",
            "offset": 0,
            "slot": "2",
            "type": "t_address"
          }
        ],
        "numberOfBytes": "96"
      },
      "t_struct(PollData)3976_storage": {
        "encoding": "inplace",
        "label": "struct DAOManager.PollData",
        "members": [
          {
            "astId": 3955,
            "contract": "contracts/maci-contracts/DAOManager.sol:DAOManager",
            "label": "id",
            "offset": 0,
            "slot": "0",
            "type": "t_uint256"
          },
          {
            "astId": 3957,
            "contract": "contracts/maci-contracts/DAOManager.sol:DAOManager",
            "label": "name",
            "offset": 0,
            "slot": "1",
            "type": "t_string_storage"
          },
          {
            "astId": 3959,
            "contract": "contracts/maci-contracts/DAOManager.sol:DAOManager",
            "label": "encodedOptions",
            "offset": 0,
            "slot": "2",
            "type": "t_bytes_storage"
          },
          {
            "astId": 3961,
            "contract": "contracts/maci-contracts/DAOManager.sol:DAOManager",
            "label": "metadata",
            "offset": 0,
            "slot": "3",
            "type": "t_string_storage"
          },
          {
            "astId": 3964,
            "contract": "contracts/maci-contracts/DAOManager.sol:DAOManager",
            "label": "pollContracts",
            "offset": 0,
            "slot": "4",
            "type": "t_struct(PollContracts)5494_storage"
          },
          {
            "astId": 3966,
            "contract": "contracts/maci-contracts/DAOManager.sol:DAOManager",
            "label": "startTime",
            "offset": 0,
            "slot": "7",
            "type": "t_uint256"
          },
          {
            "astId": 3968,
            "contract": "contracts/maci-contracts/DAOManager.sol:DAOManager",
            "label": "endTime",
            "offset": 0,
            "slot": "8",
            "type": "t_uint256"
          },
          {
            "astId": 3970,
            "contract": "contracts/maci-contracts/DAOManager.sol:DAOManager",
            "label": "numOfOptions",
            "offset": 0,
            "slot": "9",
            "type": "t_uint256"
          },
          {
            "astId": 3973,
            "contract": "contracts/maci-contracts/DAOManager.sol:DAOManager",
            "label": "options",
            "offset": 0,
            "slot": "10",
            "type": "t_array(t_string_storage)dyn_storage"
          },
          {
            "astId": 3975,
            "contract": "contracts/maci-contracts/DAOManager.sol:DAOManager",
            "label": "tallyJsonCID",
            "offset": 0,
            "slot": "11",
            "type": "t_string_storage"
          }
        ],
        "numberOfBytes": "384"
      },
      "t_struct(PubKey)8392_storage": {
        "encoding": "inplace",
        "label": "struct DomainObjs.PubKey",
        "members": [
          {
            "astId": 8389,
            "contract": "contracts/maci-contracts/DAOManager.sol:DAOManager",
            "label": "x",
            "offset": 0,
            "slot": "0",
            "type": "t_uint256"
          },
          {
            "astId": 8391,
            "contract": "contracts/maci-contracts/DAOManager.sol:DAOManager",
            "label": "y",
            "offset": 0,
            "slot": "1",
            "type": "t_uint256"
          }
        ],
        "numberOfBytes": "64"
      },
      "t_struct(TreeDepths)8419_storage": {
        "encoding": "inplace",
        "label": "struct Params.TreeDepths",
        "members": [
          {
            "astId": 8412,
            "contract": "contracts/maci-contracts/DAOManager.sol:DAOManager",
            "label": "intStateTreeDepth",
            "offset": 0,
            "slot": "0",
            "type": "t_uint8"
          },
          {
            "astId": 8414,
            "contract": "contracts/maci-contracts/DAOManager.sol:DAOManager",
            "label": "messageTreeSubDepth",
            "offset": 1,
            "slot": "0",
            "type": "t_uint8"
          },
          {
            "astId": 8416,
            "contract": "contracts/maci-contracts/DAOManager.sol:DAOManager",
            "label": "messageTreeDepth",
            "offset": 2,
            "slot": "0",
            "type": "t_uint8"
          },
          {
            "astId": 8418,
            "contract": "contracts/maci-contracts/DAOManager.sol:DAOManager",
            "label": "voteOptionTreeDepth",
            "offset": 3,
            "slot": "0",
            "type": "t_uint8"
          }
        ],
        "numberOfBytes": "32"
      },
      "t_struct(dao)3917_storage": {
        "encoding": "inplace",
        "label": "struct DAOManager.dao",
        "members": [
          {
            "astId": 3900,
            "contract": "contracts/maci-contracts/DAOManager.sol:DAOManager",
            "label": "daoId",
            "offset": 0,
            "slot": "0",
            "type": "t_uint256"
          },
          {
            "astId": 3902,
            "contract": "contracts/maci-contracts/DAOManager.sol:DAOManager",
            "label": "creator",
            "offset": 0,
            "slot": "1",
            "type": "t_uint256"
          },
          {
            "astId": 3904,
            "contract": "contracts/maci-contracts/DAOManager.sol:DAOManager",
            "label": "daoName",
            "offset": 0,
            "slot": "2",
            "type": "t_string_storage"
          },
          {
            "astId": 3906,
            "contract": "contracts/maci-contracts/DAOManager.sol:DAOManager",
            "label": "daoDescription",
            "offset": 0,
            "slot": "3",
            "type": "t_string_storage"
          },
          {
            "astId": 3908,
            "contract": "contracts/maci-contracts/DAOManager.sol:DAOManager",
            "label": "joiningThreshold",
            "offset": 0,
            "slot": "4",
            "type": "t_uint256"
          },
          {
            "astId": 3910,
            "contract": "contracts/maci-contracts/DAOManager.sol:DAOManager",
            "label": "proposingThreshold",
            "offset": 0,
            "slot": "5",
            "type": "t_uint256"
          },
          {
            "astId": 3912,
            "contract": "contracts/maci-contracts/DAOManager.sol:DAOManager",
            "label": "governanceTokenAddress",
            "offset": 0,
            "slot": "6",
            "type": "t_address"
          },
          {
            "astId": 3914,
            "contract": "contracts/maci-contracts/DAOManager.sol:DAOManager",
            "label": "isPrivate",
            "offset": 20,
            "slot": "6",
            "type": "t_bool"
          },
          {
            "astId": 3916,
            "contract": "contracts/maci-contracts/DAOManager.sol:DAOManager",
            "label": "discordID",
            "offset": 0,
            "slot": "7",
            "type": "t_string_storage"
          }
        ],
        "numberOfBytes": "256"
      },
      "t_struct(proposal)3940_storage": {
        "encoding": "inplace",
        "label": "struct DAOManager.proposal",
        "members": [
          {
            "astId": 3919,
            "contract": "contracts/maci-contracts/DAOManager.sol:DAOManager",
            "label": "proposalId",
            "offset": 0,
            "slot": "0",
            "type": "t_uint256"
          },
          {
            "astId": 3921,
            "contract": "contracts/maci-contracts/DAOManager.sol:DAOManager",
            "label": "proposalType",
            "offset": 0,
            "slot": "1",
            "type": "t_uint256"
          },
          {
            "astId": 3923,
            "contract": "contracts/maci-contracts/DAOManager.sol:DAOManager",
            "label": "proposalTitleAndDesc",
            "offset": 0,
            "slot": "2",
            "type": "t_string_storage"
          },
          {
            "astId": 3925,
            "contract": "contracts/maci-contracts/DAOManager.sol:DAOManager",
            "label": "proposerId",
            "offset": 0,
            "slot": "3",
            "type": "t_uint256"
          },
          {
            "astId": 3927,
            "contract": "contracts/maci-contracts/DAOManager.sol:DAOManager",
            "label": "votingThreshold",
            "offset": 0,
            "slot": "4",
            "type": "t_uint256"
          },
          {
            "astId": 3929,
            "contract": "contracts/maci-contracts/DAOManager.sol:DAOManager",
            "label": "daoId",
            "offset": 0,
            "slot": "5",
            "type": "t_uint256"
          },
          {
            "astId": 3931,
            "contract": "contracts/maci-contracts/DAOManager.sol:DAOManager",
            "label": "votingTokenAddress",
            "offset": 0,
            "slot": "6",
            "type": "t_address"
          },
          {
            "astId": 3933,
            "contract": "contracts/maci-contracts/DAOManager.sol:DAOManager",
            "label": "beginningTime",
            "offset": 0,
            "slot": "7",
            "type": "t_uint256"
          },
          {
            "astId": 3935,
            "contract": "contracts/maci-contracts/DAOManager.sol:DAOManager",
            "label": "endingTime",
            "offset": 0,
            "slot": "8",
            "type": "t_uint256"
          },
          {
            "astId": 3937,
            "contract": "contracts/maci-contracts/DAOManager.sol:DAOManager",
            "label": "passingThreshold",
            "offset": 0,
            "slot": "9",
            "type": "t_uint256"
          },
          {
            "astId": 3939,
            "contract": "contracts/maci-contracts/DAOManager.sol:DAOManager",
            "label": "voteOnce",
            "offset": 0,
            "slot": "10",
            "type": "t_bool"
          }
        ],
        "numberOfBytes": "352"
      },
      "t_struct(user)3898_storage": {
        "encoding": "inplace",
        "label": "struct DAOManager.user",
        "members": [
          {
            "astId": 3887,
            "contract": "contracts/maci-contracts/DAOManager.sol:DAOManager",
            "label": "userId",
            "offset": 0,
            "slot": "0",
            "type": "t_uint256"
          },
          {
            "astId": 3889,
            "contract": "contracts/maci-contracts/DAOManager.sol:DAOManager",
            "label": "userName",
            "offset": 0,
            "slot": "1",
            "type": "t_string_storage"
          },
          {
            "astId": 3891,
            "contract": "contracts/maci-contracts/DAOManager.sol:DAOManager",
            "label": "userEmail",
            "offset": 0,
            "slot": "2",
            "type": "t_string_storage"
          },
          {
            "astId": 3893,
            "contract": "contracts/maci-contracts/DAOManager.sol:DAOManager",
            "label": "description",
            "offset": 0,
            "slot": "3",
            "type": "t_string_storage"
          },
          {
            "astId": 3895,
            "contract": "contracts/maci-contracts/DAOManager.sol:DAOManager",
            "label": "profileImage",
            "offset": 0,
            "slot": "4",
            "type": "t_string_storage"
          },
          {
            "astId": 3897,
            "contract": "contracts/maci-contracts/DAOManager.sol:DAOManager",
            "label": "userWallet",
            "offset": 0,
            "slot": "5",
            "type": "t_address"
          }
        ],
        "numberOfBytes": "192"
      },
      "t_uint256": {
        "encoding": "inplace",
        "label": "uint256",
        "numberOfBytes": "32"
      },
      "t_uint40": {
        "encoding": "inplace",
        "label": "uint40",
        "numberOfBytes": "5"
      },
      "t_uint8": {
        "encoding": "inplace",
        "label": "uint8",
        "numberOfBytes": "1"
      }
    }
  }
}